:10000000F8FF022099010000F92B0000B12B00003D
:10001000B12B0000B12B0000B12B0000B12B000070
:10002000B12B0000B12B0000B12B0000F92B000018
:10003000F92B0000B12B0000713D0000753D000060
:10004000F92B0000F92B0000F92B0000F92B000020
:10005000F92B0000F92B0000F92B0000F92B000010
:10006000F92B0000F92B0000F92B0000F92B000000
:10007000F92B0000F92B0000F92B0000F92B0000F0
:10008000F92B0000F92B0000F92B0000F92B0000E0
:10009000F92B0000F92B0000F92B0000F92B0000D0
:1000A000C9120000D5120000F92B0000F92B000046
:1000B000F92B0000F92B0000F92B0000F92B0000B0
:1000C000F92B0000F92B0000F92B0000F92B0000A0
:1000D000F92B0000F92B0000F92B0000F92B000090
:1000E000F92B0000F92B0000F92B0000F92B000080
:1000F000F92B0000F92B0000F92B0000F92B000070
:10010000F92B0000F92B0000F92B0000F92B00005F
:10011000F92B000095300000F92B0000F92B0000AE
:10012000F92B0000F92B0000F92B0000F92B00003F
:10013000F92B0000F92B0000F92B0000F92B00002F
:10014000F92B0000F92B0000F92B0000F92B00001F
:10015000F92B0000F92B0000F92B0000F92B00000F
:10016000F92B0000F92B0000E1120000F92B000030
:10017000F92B0000F92B0000F92B0000F92B0000EF
:10018000F92B0000F92B0000F92B0000F92B0000DF
:10019000F92B0000F92B0000584B4CF2205210B5FF
:1001A0001A804DF628121A8000BF00BF02F028FD09
:1001B000534B4FF030621A60524A9A60524ADA60EA
:1001C000524B4FF470021A60514A136813F4807353
:1001D00004D150490B604FF4A85313604E4B1A786A
:1001E000110703D51A7842F008021A704B4B4C499C
:1001F0002A221A704B4A4C4B8B4204D252F8040FFD
:1002000043F8040BF8E7494B494900228B4202D2DC
:1002100043F8042BFAE74749474A002352F82300E2
:1002200041F823000133662BF8D1444B444A802126
:1002300003F8011B9342FBD1424B3E4A1A60424BEA
:100240008A221A70A3F5805324225A70A0221A70B1
:100250009A799207FCD59A79D406FCD43B4A9379D3
:1002600003F00C03082B394BF9D103221A714622F3
:100270005A719A799006FCD5344A9179334B4906E4
:10028000FBD5334A4FF08271116009215160202261
:100290001A709A7902F00C020C2AFAD12D4B2E4AD0
:1002A0001A602E4B2E4A1A6000225A60072243F829
:1002B000042C2C4AC3F80C2D62B602F09DFD154BA0
:1002C0001B68DA0705D5284802F01AFD274B284A93
:1002D0001A60284B1B785B0609D5244C244B2268F6
:1002E0009A4204D1204802F00BFD0023236002F063
:1002F0008DFC06F07DF803F08BFEFEE70E20054036
:1003000030800440823F04000100002B88ED00E0B3
:1003100010D0034014D0034002D0074000E0074053
:100320006C11FF1F6C730000F806FF1F6C11FF1F9C
:10033000AC13FF1F0002FF1F0000000000E400E0FC
:1003400056E400E008ED00E00050064000400640A2
:100350004480044004800440C010050014E000E024
:10036000BFD401000000202083B283621CE0034060
:10037000A5C3945A00F00740FFFFFFFFFFFFFFFFF8
:10038000FFFFFFFFFFFFFFFFFFFFFFFFFFFFFFFF7D
:10039000FFFFFFFFFFFFFFFFFFFFFFFFFFFFFFFF6D
:1003A000FFFFFFFFFFFFFFFFFFFFFFFFFFFFFFFF5D
:1003B000FFFFFFFFFFFFFFFFFFFFFFFFFFFFFFFF4D
:1003C000FFFFFFFFFFFFFFFFFFFFFFFFFFFFFFFF3D
:1003D000FFFFFFFFFFFFFFFFFFFFFFFFFFFFFFFF2D
:1003E000FFFFFFFFFFFFFFFFFFFFFFFFFFFFFFFF1D
:1003F000FFFFFFFFFFFFFFFFFFFFFFFFFFFFFFFF0D
:10040000FFFFFFFFFFFFFFFFFFFFFFFFDEF9FFFF23
:1004100010B5054C237833B9044B13B10448AFF33E
:1004200000800123237010BD6C11FF1F000000002D
:1004300068730000084B10B51BB108490848AFF3BA
:1004400000800848036803B910BD074B002BFBD0A0
:10045000BDE81040184700BF000000007011FF1FEA
:10046000687300006C11FF1F0000000010B516201B
:1004700002F020FB07EE900AFAEECB7AB1EE047A96
:1004800067EE877A0A4B0B4993ED006AC1ED007A5B
:1004900037EE677A084C094A094B2060C7EE276A95
:1004A000C6EE867AC2ED006AC3ED007A10BD00BFC9
:1004B000FC06FF1FA411FF1F2412FF1F8C11FF1F3A
:1004C0008811FF1F10B5084C0021204602F0D8F813
:1004D000064B00222046114683ED000A02F066F822
:1004E000034B83ED000A10BDBC11FF1F9811FF1FC5
:1004F000A011FF1F10B5104C204601F0DFF80F4B84
:10050000204683ED000A01F067FA0D4B204683ED8B
:10051000000A01F01BF99FED0B7A0B4BC0EE077A36
:1005200020469FED0A0AC3ED007A01F0C5FA084B98
:1005300083ED000A10BD00BFD011FF1F9411FF1FF3
:10054000A811FF1F0000C8429011FF1F00507D44FA
:100550009C11FF1F10B50E4C0E4A2046002100F0E2
:10056000C7FA20460C4A012100F0C2FA20460B4A85
:10057000022100F0BDFA2046094A032100F0B8FA32
:100580002046084A0421BDE8104000F0B1BA00BF7F
:10059000AC11FF1F0007FF1F0807FF1F2007FF1FE9
:1005A0001007FF1F1807FF1F10B50024E0B200213D
:1005B000013402F0B9FB0A2CF8D12046BDE8104006
:1005C00002F0CCBB10B50B4C0B480423142227219E
:1005D00000F0F2F9204600F089FE2046074A08495B
:1005E00004F04AFF0623162217210648BDE81040F2
:1005F00001F000BFD011FF1FAC11FF1FF806FF1F55
:10060000FD120000BC11FF1F38B5304C304D2046A4
:100610000022012100F032FA29462046122203F07E
:10062000B1FB20460322012100F028FA294620468A
:10063000122203F0A7FB20460122002100F01EFA3F
:100640002046002100F014FA20460222002100F08A
:1006500015FA2046002100F00BFA20460122132152
:1006600000F00CFA2046002100F002FA2046022297
:10067000132100F003FA2046002100F0F9F90022CE
:100680001146204600F0FAF92046012100F0F0F969
:1006900020460022132100F0F1F92046022100F04B
:1006A000E7F920460322002100F0E8F92046032163
:1006B00000F0DEF920461321032200F0DFF9204686
:1006C0000421BDE8384000F0D3B900BFAC11FF1FD2
:1006D000CC6D000010B5104C204600F093F9204678
:1006E00000F0F0F920460122022100F0C7F920466F
:1006F0000F220A4903F046FB20460222032100F0A4
:10070000BDF920460E22064903F03CFBFFF722FF0D
:10071000BDE81040FFF778BFAC11FF1FE06D00008F
:10072000F06D0000F8B50422142100234748484F1B
:10073000484E00F005FA454800F07EFA464A47491F
:10074000146840F2EE250B783BB13B78DB0704D50B
:10075000136830681B1A0E2B07D8136808781B1B08
:10076000002867D0B3F5FA6FEDD937213C4801F086
:100770004BFE3C4800F0B8FA0021102002F0E8FAE5
:1007800000210F2002F0E4FA00210E2002F0E0FA2E
:100790000021112002F0DCFA0021122002F0D8FA28
:1007A0000021132002F0D4FA0021142002F0D0FA24
:1007B0000021152002F0CCFA02211D2002F0C8FA17
:1007C00002211B2002F0C4FA0221192002F0C0FA13
:1007D0000221172002F0BCFA0121022002F0B8FA2F
:1007E0000121032002F0B4FA0121042002F0B0FA42
:1007F0000121052002F0ACFA0121062002F0A8FA3E
:100800000121072002F0A4FA0121082002F0A0FA39
:100810000121092002F09CFA124A1348762100F0C7
:1008200029FF50B93321114803F07CF9104803F037
:10083000BFFAFEE7AB4286D997E7FFF74BFF4FF4CD
:10084000FA60BDE8F84002F089BA00BFAC11FF1FA2
:100850002C13FF1FA413FF1F3012FF1F1413FF1FC1
:10086000BC11FF1F9407FF1FD011FF1F006E000077
:100870007808FF1FFFF756BF10B53D4C204600F02B
:10088000C1F8204600F01EF9FFF71CFEFFF732FE0C
:10089000FFF7ECFD20460122002100F0EFF80522D1
:1008A0002046344903F06EFA334B186804F04EFFCB
:1008B00041EC100B2046022103F0CEFA2046DF2146
:1008C00000F0D6F8204604222C4903F05BFA0022FF
:1008D00020460D2100F0D2F8294B186804F036FFAD
:1008E00041EC100B2046022103F0B6FA204601220B
:1008F000244903F047FA20460222002100F0BEF806
:1009000020460422204903F03DFA01222046062118
:1009100000F0B4F81D4B186804F018FF41EC100B00
:100920002046022103F098FA20460222184903F0DB
:1009300029FA20460322002100F0A0F80B222046CD
:10094000144903F01FFA144B186804F0FFFE41EC41
:10095000100B2046022103F07FFA2046DF2100F031
:1009600087F8204601220D49BDE8104003F00ABA7D
:10097000AC11FF1F346E0000A011FF1F3C6E000081
:100980009811FF1FC06D0000446E00008811FF1F0A
:100990004C6E0000506E00009411FF1F5C6E000052
:1009A00008B5FFF701FEBDE80840FFF765BF00BFCF
:1009B00000207047704700BF30B4054D41710021E1
:1009C0000560C272037301718172417330BC70475C
:1009D000B46F000038B54379094C0125AB4084F869
:1009E0003B3084F85E5084F85D50437B20461943C9
:1009F00000F066F929462046BDE8384000F0CCBA40
:100A00009407FF1F082343730021FFF7E3BF00BFD4
:100A100038B50C4641F004010546FFF7DBFF2823FB
:100A2000013BFDD104F0FB012846FFF7D3FF4FF453
:100A3000FA63013BFDD138BDF8B521F00F05154330
:100A400014460F460646294644EA0714FFF7C2FF3C
:100A5000E4B229463046FFF7DBFF21463046FFF778
:100A6000B9FF21463046BDE8F840FFF7D1BF00BFCF
:100A700008B50122FFF7E0FF012008BDF0B5104BDB
:100A8000144606460F460FCB85B0757A0DF1100E51
:100A90000EE90F00A5423CBF05F1FF34E4B204AB00
:100AA00003EB8404304654F8101C394461F07F0194
:100AB000C9B2002205B0BDE8F040FFF7BDBF00BFDE
:100AC000C46F000010B5002201210446FFF7B4FFF7
:100AD000064B013BFDD1A37A03B910BD002220468D
:100AE0001146BDE81040FFF7C9BF00BF80380100C4
:100AF00001F00701C9002DE9F04141F0400117461E
:100B0000002205467C1EFFF797FFDFF8308007378D
:100B100003E0FFF791FFBC420ED02B6814F8016F81
:100B20001B6843454FF0010231462846F1D031465B
:100B300028469847BC42F0D1BDE8F081710A000018
:100B4000012A38B5044603D9817941F00801817141
:100B500062720BB1012A55D0322002F0FFF8617B9E
:100B60002B4D2046FFF736FF4FF47A7002F0F6F86F
:100B700020463021FFF72EFF30212046FFF748FFA7
:100B80002B46013BFDD130212046FFF723FF2046B5
:100B90003021FFF73DFF013DFDD130212046FFF719
:100BA00019FF20463021FFF733FF41F27073013BFC
:100BB000FDD120212046FFF70DFF20462021FFF721
:100BC00027FFA179204641F020010022FFF734FFE2
:100BD0000423E371204600220C21FFF72DFF02259C
:100BE0002046FFF76FFF2046257200220621FFF7FF
:100BF00023FF204629460022FFF71EFF054B013B3D
:100C0000FDD138BDA37943F00403A371A4E700BF6D
:100C100020BF02008038010010B50446054800F0EE
:100C200063F80023A371227BE17A2046BDE81040DF
:100C3000FFF786BF9407FF1FFFF7EEBF90F839203C
:100C400090F83800101A704790F8383090F8392032
:100C50009A4205D95A1C034480F83820187E704700
:100C60004FF0FF30704700BF90F8383090F83920CF
:100C70009A4286BF1B18187E4FF0FF30704700BFA6
:100C8000704700BF38B50546B0F85E0090B195F8E2
:100C90005D301446C3F1210294420CD805F13B00AB
:100CA0001844224601F020FD95F85D30234485F874
:100CB0005D30204638BD012014462871EEE700BFA4
:100CC000B0F85E306BB190F85D30202B07D8C218B9
:100CD000013380F85D30012082F83B10704701231A
:100CE00003710020704700BF0023426980F838304C
:100CF00080F8393080F85C3080F85D3080F85E3004
:100D000080F85F3006CA30B40D68046943662A4330
:100D100083660A60A370426990F8613016491468CE
:100D200013441D7A5B7B01EBC5051B026D6803F460
:100D3000E06343F064032B6090F8623013449D7CC1
:100D4000DB7D01EBC5011B02496803F4E06343F05E
:100D500064030B6021685368194205D003692C2293
:100D60005A70036904229A71036920225A71036937
:100D700080229A7030BC7047A070000038B50269BC
:100D8000D478E4B2E106054624D51023D370630677
:100D90001FD504F0040404F0FF03002C5AD042498C
:100DA0006A6E00230B7085F85D30002A66D090478C
:100DB00095F85D30002B61D02B69D0229A702B6999
:100DC00095F83B201A712B69012285F85C200222DC
:100DD000DA7038BD04F0400303F0FF00002BD8D1D7
:100DE0009379DBB203F0600160294ED0937803F071
:100DF000100303F0FF01B3B114F0010437D195F8EB
:100E00005C3095F85D1099424BD9591C2B4485F8FC
:100E10005C1093F83B3013712B69D0229A702B69C8
:100E20000222DA70D5E785F86010937943F0200349
:100E300093712B6995F839101A791F29D2B2C6D847
:100E4000194800780028C2D06818013185F8391097
:100E50000276BCE72A6985F83930C02393702B6984
:100E6000114A1979012111700222DA70B1E7C02309
:100E700093702B691A790222DA70AAE70122002303
:100E800085F85D2085F83B3096E703F0DF0393712A
:100E9000AB6E23B185F8380095F8390098472A6978
:100EA000A4E71471B8E700BF2812FF1F2DE9F0472F
:100EB000374FDFF8E0903B68026982B00646009346
:100EC000DDF800800021C825D3789B065BD53B6800
:100ED0000193019BC8EB03030F2BF5D949B1102BEC
:100EE000F2D000209070336980229A7002B0BDE881
:100EF000F087726996F8613013440521187A01F081
:100F000027FF726996F861301344012193F812A00B
:100F1000504601F01DFF09240021504601F004FF56
:100F20002B46013BFDD10121504601F0FDFE2B4631
:100F3000013BFDD1013CEFD1706996F8611001448D
:100F40004FF4C8720C7A4B7B09EBC4011B02496851
:100F500003F4E06343F064030B6096F862300344EB
:100F6000997CDB7D09EBC1011B02496803F4E06356
:100F700043F064030B60013AFDD13269D3789B06DC
:100F80004FF00101A3D4012002B0BDE8F08700BFFB
:100F90003012FF1FA0700000F0B503691222DA7052
:100FA0000269937803F0200385B004460D46002BB8
:100FB0005ED0B42393703C4922690B680093009E75
:100FC00005E00B680193019B9B1B042B42D8D3784F
:100FD00003F0200303F0FF00002BF2D094F85D3003
:100FE000002B31D04FF0000E4FF0020C04EB0E033B
:100FF00093F83B3013710B680393039F206907E05C
:101000009B060DD50B680293029BDB1B052B28D892
:10101000C378DBB203F0020202F0FF06002AEFD031
:1010200080F803C02669F378DBB2DF0632462DD4A0
:101030009F062BD5DB0731D40EF1010E94F85D30FD
:101040005FFA8EFE7345D1D800201DBB002384F8C3
:101050005E3004E09070236980229A70042005B00D
:10106000F0BD86702369802204209A7005B0F0BD1F
:1010700003F0FF06FFF71AFF10B9042005B0F0BD1A
:10108000236984F85F60B0229A7094E78023B3707C
:101090000420DAE726698023B370D7E7BEF1000F9A
:1010A0000CBF02200320F6E73012FF1F2DE9F041AC
:1010B00006690025122780F8385080F83950F770FB
:1010C000D0F810C09CF802E00EF0200E88B0044664
:1010D000884615461E46BEF1000F49D0B4238CF851
:1010E0000230784B21691A680092DDF800E006E0D2
:1010F0001A6801920198CEEB0000042830D8C87815
:1011000000F0200000F0FF070028F1D04FEA48026D
:1011100042F00102D2B20A711A680292DDF808E0C8
:10112000206906E01A6803920399CEEB01010529B4
:101130002AD8C17801F0020101F0FF070029F1D09F
:101140004FF0020C80F803C02269D17811F011072A
:1011500022D12DBB002E0CBFA0238023937003E06F
:101160008F70236980229A70384608B0BDE8F081FC
:101170000EF0FF07FFF79AFE0028F5D0236984F8E8
:101180005F70B0229A70ACE787702369802238467E
:101190009A7008B0BDE8F081802393700027E3E7E0
:1011A000012D75D0A021917021690A79BE4667464C
:1011B0004FF0A80C1A680492049805E01A6805928A
:1011C000059A121A052A4AD8CA7802F0020202F0D9
:1011D000FF08002AF2D0CF702169CA78D2B212F08B
:1011E000100F08465AD1920658D5013DEDB2012D97
:1011F00049D0BEF11F0F3BD90A79012DDAD11A6807
:101200000692069D05E01A680792079A521B052A66
:1012100046D8C27802F0020202F0FF01002AF2D0A2
:101220000223C3702269D378DBB2D9063AD49B0675
:1012300034D5B023BEF11F0F93703FD8226904EB61
:101240000E0312791A760EF1010E5FFA8EFE16B1B8
:10125000236980229A7084F839E0774684E781F820
:101260000280236980229A70774684F839E07BE710
:1012700004EB0E0291F8048082F818800EF1010E42
:101280005FFA8EFEB9E781F802C021690846B0E72F
:10129000A82191702069BE460279B0E7774663E7DE
:1012A0008170DEE71021C823D170013BFDD1226996
:1012B000937803F0F7037746937055E723691B791A
:1012C000C5E700BF3012FF1F0148FFF757BD00BF41
:1012D0009407FF1F0148FFF751BD00BF0008FF1F23
:1012E0000148FFF74BBD00BF2807FF1F0022026027
:1012F00042608260C26002610262704738B5456830
:10130000044635B1284600F0F1FC28462C2102F0B5
:1013100089FE206810B1102102F084FEA06870B12F
:1013200003685B689847E06810B103685B6898479A
:10133000206910B103685B689847204638BDE068B3
:101340000028F2D1F4E700BF10B5036884B08DF82F
:101350000D206BB104AA002402F8041D18461146A2
:10136000019400940123022200F028FC04B010BD77
:1013700004AC01F07F0204F8042D4068009321467C
:10138000022200F0C9FD04B010BD00BFF8B590F80E
:101390004C609DF81C7090F8485061F3871667F315
:1013A000C5059DF8207090F8501062F302069DF874
:1013B000182067F30205044663F3C50662F347117C
:1013C0006FF3C71580F84C6080F8501080F84850D3
:1013D0000022F421FFF7B8FF94F85020204652096C
:1013E000F221FFF7B1FF94F84820C2F3C20302F0E4
:1013F00007019B0043EA411343EAD2122046F5213C
:10140000FFF7A2FF94F84C20C2F3C20302F00701D9
:101410009B0043EA4113204643EA9212F421BDE8BF
:10142000F840FFF791BF00BF30B5046885B004AB4A
:101430006CB103F8041D01220025204619468DE8F1
:10144000240000F02BFC9DF80C0005B030BD61F0CD
:101450007F0103F8041D0122FF24406819468DE82E
:10146000140000F0EFFD9DF80C0005B030BD00BF8A
:1014700030B5026885B004AB92B103F8041D0025B5
:101480000224104619468DE83000012200F006FCC7
:101490009DF80C009DF80D3043EA002005B030BDEA
:1014A00061F07F0103F8041DFF2402224068194601
:1014B0008DE81400012200F0C5FDE9E730B50268AF
:1014C00085B004ABB2B103F8041D00250324104617
:1014D00019468DE83000012200F0E0FB9DF80D3048
:1014E0009DF80C209DF80E001B0243EA02431843AE
:1014F00005B030BD61F07F0103F8041DFF24032215
:10150000406819468DE81400012200F09BFDE5E7D4
:1015100038B588210446FFF7ABFF40BAA0848A2182
:101520002046FFF7A5FF40BAE0848C212046FFF754
:101530009FFF40BA20858E212046FFF799FF40BAD1
:10154000608590212046FFF793FF40BAA085922145
:101550002046FFF78DFF40BAE08594212046FFF733
:1015600087FF40BA208696212046FFF781FF40BAC8
:10157000608698212046FFF77BFF40BAA0869A211B
:101580002046FFF775FF40BAE0869C212046FFF712
:101590006FFF40BA20879E212046FFF769FF40BABF
:1015A0006087A1212046FFF73FFFE12184F83C003E
:1015B0002046FFF75DFF40BAE087E3212046FFF7B2
:1015C00033FFE42184F840002046FFF72DFFE5219A
:1015D00005462046FFF728FF6DB200F00F0040EAF5
:1015E0000510A4F84200E6212046FFF71DFFE52183
:1015F00005462046FFF718FF6DB2001140EA0510BE
:10160000A4F84400E7212046FFF70EFF84F84600C7
:1016100038BD00BF30B5D02185B00446FFF704FFC8
:101620006028A06102D0002005B030BD2046B6225F
:10163000E021FFF789FE0A2001F090FBF32120460C
:10164000FFF7F2FE10F001054FF00A00F4D120463A
:10165000FFF75EFF0523204600931A4603210295FB
:101660000195FFF793FE642001F078FB012005B09F
:1016700030BD00BFF8B50446406838B100F040FB0B
:10168000D0B12046BDE8F840FFF7C4BF20680D4642
:10169000164610B1102102F0C5FC102002F0C0FC6B
:1016A00029460746324600F053FA276038460121A2
:1016B00000F074FA0028E4D10020F8BD38B5FA2112
:1016C0000446FFF7FBFEB0F5000F38D00011A18CE7
:1016D000B4F926209FED1B7A00280546B8BFC51D2A
:1016E0000028B8BF0F304B00C3EBE503C1EB20105F
:1016F00002FB03F300FB00F0B4F928200013002BD9
:1017000002FB00F0B8BF03F2FF730028BCBF00F576
:101710007F503F30226ADB1203EBA033134403EB0C
:101720008302E36112F1800348BF02F27F131B12B0
:1017300007EE903AF8EEE77A87EE870A38BD9FED1C
:10174000020A38BD0000C8420000C07F2DE9F04FFA
:10175000064683B0FFF7B2FF3046F721FFF7AEFE33
:10176000B0F5000F00F00A81F469B6F92E80B6F9E1
:101770002C20E517B4F5FA3445F1FF35A4FB04AB92
:1017800004FB05F10BEB410B4FEAE879D31702FBA1
:1017900005FE08FB0BFC04FB03EE0AFB09CCA2FBD5
:1017A00004230746A8FB0A017344614400284FEA5A
:1017B000033971F1000349EA12594FEA0238C0F2C5
:1017C000E280020A42EA016218EB02084FEA212392
:1017D00049EB030918F10000B6F82A8049F50041E9
:1017E000A0FB082308FB01339946002A79F1000386
:1017F0009046C0F2CC804FEA69024FEAE97352EAA0
:10180000030100F0B680B6F93280B6F934004FEA31
:10181000E87908FB05F104FB0911A8FB04450D4418
:101820004FEA4549C11749EAD4394FEA444800FB19
:101830000BF40AFB0144A0FB0AABB6F93000A34449
:10184000C100002401910094DDE900453F11C7F576
:1018500080171AEB080A4FEAE7714BEB090BC9072F
:1018600014EB0A044FEAC77045EB0B0541EA570138
:10187000001B61EB050110EB000841EB010918EBBF
:10188000000849EB01094FEA89154FEA881445EA37
:10189000986518EB040849EB05094FEA89044FEAFB
:1018A000880544EA987415EB000844EB01094FEAF7
:1018B00089044FEA8805401944EA9874614104F0AC
:1018C000C7FB002871F100038046894673DBB6F937
:1018D0003A204FEA69344FEA583545EAC94502FBD8
:1018E00004F7D31705FB0377A2FB05233B4402FB58
:1018F00004F405FB0344A2FB05232344002A73F1EF
:10190000000452DBB6F938404FEA526804FB01F795
:10191000E51748EAC31800FB05774FEA6369A4FBA3
:10192000004510EB08003D4441EB0901002C75F126
:10193000000335DBE20C42EA453212184FEAE54378
:101940004B41002A73F1000126DB120AB6F936403A
:1019500042EA036019121023C4FB030104F03AFBAE
:101960009FED190A07EE900A27EE800A03B0BDE842
:10197000F08F9FED160A03B0BDE8F08F9FED140ABB
:1019800003B0BDE8F08FFF3041F1000119E718F115
:10199000FF3849F101092EE7FF3243F10003D4E794
:1019A0000C4A0023A4185D41C4E76FF07E44002573
:1019B00012196B41A6E741F6FF784FF0000918EBCA
:1019C000000849EB010982E70000803B00000000AD
:1019D0000000C07FFFFF070010B50446FFF76EFE52
:1019E0002046FD21FFF744FDB0F5004F5DD0B4F96E
:1019F0004220E369B4F944101205A3F59633C2EB13
:101A0000803003FB110010F5804148BF00F53F41D5
:101A100094F8400094F9462003FB00F003FB02F227
:101A200048BFFF310028B8BF00F2FF70002AB8BFDE
:101A300002F2FF32C01200F50040931203FB00F3E4
:101A4000002BB8BF03F2FF33B4F93E209B1203F51D
:101A5000001302FB03F313F5005244BF03F5BF422A
:101A60007F32C913931301FB03F3002B1A46BCBF4B
:101A700003F5FF427F32D21394F83C1002FB02F2CE
:101A8000D21101FB02F2002AB8BF0F32A3EB2213DE
:101A900023EAE373B3F1C85FA8BF4FF0C8531B1329
:101AA00000EE103ABAEECB0A10BD9FED010A10BD50
:101AB0000000C07FFFFFFFFF08B52DED028BB0EEE9
:101AC000408AFFF743FEDFED167A80EE270AC0EE6C
:101AD000087A17EE900A03F039FE9FED0D1B41ECDA
:101AE000100B02F091FB002053EC102B0D4903F07A
:101AF000CDFC09A3D3E9002303F07CFE04F04AF9EE
:101B0000BDEC028B00EE100A08BD00BFAFF30080F1
:101B100000000020C05BC83F0000000040A5E54079
:101B20000000C8420000F03F70B5044640681E4601
:101B300003685B6815469847854201D0002070BD58
:101B400031466068FFF728FAB0FA80F0400970BDAE
:101B500030B4002520240572C4600170426030BC9E
:101B6000704700BF037A10B5044683B122786368DA
:101B70000121520083F83B2083F85E1083F85D104A
:101B80006068FFF709FAB0FA80F0400910BD012142
:101B900000F004F80028E9D110BD00BF38B50446B4
:101BA00040680D46FFF7A0F80120207205B938BD46
:101BB0002046BDE83840FFF7D5BF00BF2DE9F04112
:101BC000079EC468DDF818E09519A54219D8154696
:101BD0000278984643680F4652000121044683F874
:101BE0003B2083F85E1083F85D106EB1BEF1000FEC
:101BF0000AD04068036871465B683246984786425F
:101C000002D00020BDE8F08143462A4639462046EE
:101C1000BDE8F041FFF788BF2DE9F843C468A24250
:101C200002D90020BDE8F8831646884607460178A9
:101C30004068D2B2FFF73AFA8642F2D136B30023B7
:101C4000DFF854901C4612E090F8383090F83920B4
:101C50009A4203F1010E00EB03011AD980F838E033
:101C6000087E28700134A4B2A64223460ED97868B3
:101C7000026852694A4508EB0305E5D090470134F4
:101C8000A4B2C0B2A64228702346F0D80120BDE815
:101C9000F883FF20E5E700BF490C00002DE9F04183
:101CA000C568069F9DF81C60AA4202D90020BDE8C5
:101CB000F08190F800C0D0F804E04FF001084FEA3E
:101CC0004C0C1D468EF83BC033468EF85E808EF875
:101CD0005D800446FFF728FF0028E7D043463A46D8
:101CE00029462046BDE8F041FFF796BF10B50446EF
:101CF000406810B1042102F095F9204610BD00BFE4
:101D000010B504460121807B01F022F8A07B01215F
:101D100001F00AF8206828B100F02AFB012084F8BD
:101D2000280010BD0121E07B01F012F8617BE07B0F
:101D300011F0FB0118BF012100F0F6FF94F910002B
:101D4000421C07D0C0B2012101F002F80121207C21
:101D500000F0EAFF94F91100431CDFD0C0B200216B
:101D600000F0F6FF012084F8280010BD2DE9F047AF
:101D7000046813460A4624B12046BDE8F04700F047
:101D800035BB067B0C7885686249B1FBF5F5002E02
:101D90000CBF4FF001094FF0800919EA040F0CBF86
:101DA0004FF0010C4FF0000CEDB2002B00F0AF80B3
:101DB00005EB8507114602EB0308FF0011F801EB64
:101DC0004B460026002D50D0002F4ED03A46013A07
:101DD000FDD1427B12F0F70F40F08D8090F910207A
:101DE000013212D01EEA030214BF0124002464450C
:101DF0000BD0002A6CD0446990F8242094F800C0DD
:101E00004CEA020222704FF0010C846990F82620FF
:101E100094F800A04AEA020222701DB117B13A46B6
:101E2000013AFDD190F91120013206D0C26990F833
:101E300025401278224218BF1E43826990F826A0DE
:101E4000147824EA0A04147090F91120013201D0A8
:101E500001F8016C027B002A35D15B00DBB2002B5C
:101E6000B0D18845AAD1BDE8F087427B12F0F70FC8
:101E7000B4D0846990F8262094F800A04AEA0202BF
:101E8000227090F9102001320AD01EEA030F446933
:101E90002AD090F8242094F800A04AEA0202227086
:101EA000846990F826A0227822EA0A02227090F92A
:101EB00011200132CED0C26990F82540127822421A
:101EC00018BF1E43C4E75B08002B7FF47BAFC8E755
:101ED000D0F814A090F824C09AF8004024EA0C042A
:101EE0008AF80040944690E790F824A0227822EAED
:101EF0000A022270D4E7846990F8262094F800A0A2
:101F00004AEA020222703A46013AFDD1B9E7BDE839
:101F1000F08700BF20A107002DE9F0430C4683B0F5
:101F200001680A9F064690461D4681B14268CB7AF9
:101F30001268002B4ED10B68D968914207D03948FE
:101F400018603949DA6042F0804018611960002158
:101F5000B07B00F0E9FE77B105EB07090DF107074B
:101F600015F8013B8DF80730012239463046FFF75E
:101F7000FDFEA945F4D1B8F1000F0ED004EB080521
:101F80000DF1070714F8013B8DF80730012239469F
:101F90003046FFF7EBFEA542F4D10121B07B00F003
:101FA000C3FE336893B1DA7A82B1D00703D51F4AF2
:101FB00099691160DA7A910703D51D4AD9691160D0
:101FC000DA7A520702D51B4A1B6A1360012003B05C
:101FD000BDE8F08372B6CB7AD80709D5DFF858E0B0
:101FE000C868DEF8003003408B61CEF80030CB7A51
:101FF000980709D5DFF844E00869DEF800300340AF
:10200000CB61CEF80030CB7A5B0708D5DFF830E043
:102010004869DEF8003003400B62CEF8003062B64B
:1020200089E700BF01403F0000003F8000E100E081
:1020300004E100E008E100E080E100E084E100E08C
:1020400088E100E02DE9F0470D4682B00168DDF837
:1020500028909DF82C80064617461C4681B14268A0
:10206000CB7A1268002B4FD10B68D968914207D008
:10207000394818603949DA6042F0804018611960C7
:102080000021B07B00F050FE77B105EB070A0DF19F
:10209000070715F8013B8DF8073001223946304615
:1020A000FFF764FEAA45F4D1B9F1000F0FD0A144A7
:1020B0000DF107070122394630468DF80780FFF7FA
:1020C00055FE9DF8073004F8013BA145F2D10121EE
:1020D000B07B00F029FE336893B1DA7A82B1D00781
:1020E00003D51F4A99691160DA7A910703D51D4A11
:1020F000D9691160DA7A520702D51B4A1B6A13604C
:10210000012002B0BDE8F08772B6CB7AD80709D5B6
:10211000DFF858E0C868DEF8003003408B61CEF885
:102120000030CB7A980709D5DFF844E00869DEF87B
:1021300000300340CB61CEF80030CB7A5B0708D586
:10214000DFF830E04869DEF8003003400B62CEF87B
:10215000003062B688E700BF01403F0000003F80CA
:1021600000E100E004E100E008E100E080E100E0DF
:1021700084E100E088E100E02DE9F0410468E568D1
:1021800015F0807F794D256052D1DF0740F1B38093
:10219000002900F0E3800D78012B18BF45F00045C1
:1021A0006563013190F8248003F1FF3C48EA082878
:1021B000BCF1000F00F0A88021B14D7811F8028B1E
:1021C00045EA082845682E7ABCF1020F06F1FF3671
:1021D0004FEA06360CBF48F0805548F01045B6B2BD
:1021E0006563ACF1020C08E00AB114700132013BE6
:1021F00005F47045B54216D90468E56A15F0F00F8C
:10220000F6D0A46B13F0010F17464FEA242EEBD142
:102210001AB107F802EB54703A4605F47045B5421E
:10222000A3F10203E8D8BCF1000F6DD00468C3E746
:10223000DD074CD5002900F089800D78012B18BFEF
:1022400045F000456563013103F1FF3E90F824C07D
:10225000BEF1000F41D029B191F801C00D780231D3
:1022600045EA0C2C45682E7ABEF1020F06F1FF36C6
:102270004FEA06360CBF4CF080554CF01045B6B214
:102280006563AEF1020E08E00AB114700132013B41
:1022900005F47045B54215D90468E56A15F0F00FEC
:1022A000F6D013F0010F1746A46BEDD122B107F859
:1022B000024B241254703A4605F47045B542A3F11E
:1022C0000203E9D8BEF1000F07D00468C3E79E46B9
:1022D00090F824C0BEF1000FBDD11BB30468E16AC1
:1022E00011F0F00FFBD0A16BDC071DD50AB1117006
:1022F0000132013BF1E790F824809C4648EA082827
:10230000BCF1000F7FF458AF63B10468E16A11F0CB
:10231000F00FFBD0DE07A16B0FD50AB111700132AF
:10232000013BF1E7BDE8F0812AB114460D1204F833
:10233000021B55702246023BCFE72AB114460D120C
:1023400004F8025B51702246023BDDE790F824500E
:10235000012B18BF45F00045656375E790F82450E0
:10236000012B18BF45F0004565631BE700041F8083
:1023700090E80C00F0B41C6859682568164F174E99
:1023800029432160164D17491760D6601561116009
:10239000417A154A5C180C3194F82C4053F82150BE
:1023A00002EBC40149680D60017A5C1803EB8101FE
:1023B000247ECD6902EBC40149680D60817A58180A
:1023C00003EB810390F84000596C02EBC002F0BCB3
:1023D00053681960704700BF01401F0001100038AA
:1023E0000110007800001F80A07000000BB1FFF703
:1023F000C3BE704710B4034CC460417182715DF874
:10240000044B7047C0D4010030B5044683B00D467C
:102410004079022100F09CFC044B65741B68019319
:10242000019BA3F5FA63A36003B030BD3012FF1F18
:10243000F0B55D4BD3B01B680193019A29B983684D
:10244000D31AB3F5FA6FC0F090800025826004467D
:1024500002210571C570857045700570407900F0E6
:1024600077FC012000F07AFC0121607900F070FC1B
:102470002946607900F058FCA379153B012B00F246
:1024800081804AF6E033013BFDD10221607900F002
:102490005FFC637C03EB8303DB0063D172B6002532
:1024A00003E0E3689D4258D21546607900F042FC93
:1024B0006A1C0028F5D001354FD0002503E0E36801
:1024C0009D424AD21546607900F034FC012805F19E
:1024D0000102F4D0013540D003AE53AF002503E034
:1024E000E268954244D21D46607900F023FC6B1CE3
:1024F0000028F5D046F8045C002503E0E268954228
:1025000039D21D46607900F015FC012805F1010360
:10251000F4D046F8085BBE42E0D162B602AF39465D
:1025200000220FE06B1C14D0A35D5B00DBB2A8425D
:1025300002F1010238BF43F00103282AA35501F13B
:10254000080123D057F832004D68431C4FEAE206D9
:10255000E8D10020207453B0F0BD0020207462B692
:1025600053B0F0BD013BFDD198E7007C53B0F0BD06
:102570004FF0FF35BEE74FF0FF3546F8085BBE422F
:10258000ACD1CAE7142000F0E9FB7EE7257861783A
:10259000A278E378207929440A441344DBB29842B4
:1025A000D7D101202074DBE73012FF1F38B50D466C
:1025B00011460446FFF73CFF58B1A3790B3B0B2BA8
:1025C00007D8DFE803F01B3D0606060606060606EA
:1025D00009099FED270A38BDA178E378DFED257A58
:1025E0000A0202F4FE42134300EE103AB8EEC00AAB
:1025F0000B0620EE270A35D4CDB9ECE7A3789FED82
:102600001D7A00EE103AE378B8EE400A190648BF8A
:10261000FFEE007A03F00F0348BF37EEC00A07EE63
:10262000903AF8EEE77AA7EE870A002DD3D09FED17
:10263000127ADFED127AE0EE077AB0EE670A38BD63
:10264000E378A2789FED0B7A03F00F0306EE902A51
:1026500007EE903AB8EE660AF8EEE77A1206A7EEB1
:10266000870AC9D5B1EE400A002DE0D1B3E700BF1B
:102670000000C07FCDCCCC3D6666E63F0000004246
:1026800010B50446FFF7D4FE58B1A3790B3B0B2BD2
:1026900007D8DFE803F01515060606060606060647
:1026A00009099FED0F0A10BD2388DFED0E7A5BBA92
:1026B0009BB207EE103AB8EEC70A20EE270A10BD0B
:1026C00063789FED087A07EE903A237800EE103A8F
:1026D000F8EEE77AB8EEC00AA7EE870A10BD00BF91
:1026E0000000C07FCDCCCC3D01B441EA000313F023
:1026F00003036FD1403A41D351F8043B40F8043B07
:1027000051F8043B40F8043B51F8043B40F8043BCB
:1027100051F8043B40F8043B51F8043B40F8043BBB
:1027200051F8043B40F8043B51F8043B40F8043BAB
:1027300051F8043B40F8043B51F8043B40F8043B9B
:1027400051F8043B40F8043B51F8043B40F8043B8B
:1027500051F8043B40F8043B51F8043B40F8043B7B
:1027600051F8043B40F8043B51F8043B40F8043B6B
:1027700051F8043B40F8043B403ABDD2303211D30B
:1027800051F8043B40F8043B51F8043B40F8043B4B
:1027900051F8043B40F8043B51F8043B40F8043B3B
:1027A000103AEDD20C3205D351F8043B40F8043B0B
:1027B000043AF9D204320AD0D2071CBF11F8013B07
:1027C00000F8013B03D30B7803704B78437001BCD6
:1027D000704700BF0C2A4AD310F0030311D0C3F195
:1027E0000403D21ADB071CBF11F8013B00F8013BC0
:1027F00007D311F8013B00F8013B11F8013B00F849
:10280000013B11F003033FF475AF30B4043AC91A29
:10281000C3F1040C51F8044B022B19D0032B0BD03D
:10282000240A51F8043B1D0644EA050440F8044B11
:102830001C46043AF4D216E0240E51F8043B1D0263
:1028400044EA050440F8044B1C46043AF4D20AE07A
:10285000240C51F8043B1D0444EA050440F8044BE1
:102860001C46043AF4D20432B1EB0C0130BC043AF9
:10287000A0D3013A11F8013B00F8013BF9D20B78E3
:1028800003704B7843708B78837001BC704700BF36
:10289000374A384913681B06FCD40B6813F08003D1
:1028A000F8D172B634490A78002A5FD0334A3448E6
:1028B000F0B4344C176806682568D4680C303E4480
:1028C000143200681268304F35442C4420440244CE
:1028D000C2F34E022D4E2E482E4D2F4C42F4004294
:1028E0003A60376806682D682C4A24680C303E44EC
:1028F000006812682A4F35442C4420440244C2F335
:102900004E02284E2848294D294C42F400423A6094
:10291000376806682D68274A24680C303E440068F2
:102920001268254F35442C4420440244C2F34E0221
:10293000224E2348234D244C42F400423A6037682B
:1029400006682D68214A24680C303E4400681268ED
:1029500035442C4420440244C2F34E021C4842F445
:10296000004202600B7062B6F0BC704762B67047FE
:1029700024B0034024B00B402A12FF1F38B003409C
:102980003CB0034040B003402CB0034058B003407B
:102990005CB0034060B0034064B003406CB00340DF
:1029A00030B0034038B00B403CB00B4040B00B405F
:1029B00044B00B404CB00B402CB00B4058B00B4017
:1029C0005CB00B4060B00B4064B00B406CB00B408F
:1029D00030B00B4030B42948294A2A4B2A4D602494
:1029E000E121047011701B78284C082B30D00A2B81
:1029F0002748284937D00C2B0CBF35225D221223E3
:102A00002A60236002600B60234B24491B78244A10
:102A1000BBB101230B601360224B23491B78234A6F
:102A2000012B26D9042B0FD9082B1ED9102B94BFAC
:102A3000862387230B6013601D4B01221A7030BC64
:102A400070470B601360E7E784230B601360F3E7C4
:102A500000F58E200F490830212213232A602360BD
:102A600002600B60D0E73922F7E785230B60136023
:102A7000E2E780230B601360DEE700BF0040074001
:102A8000014007406C08FF1F08B003400CB0034032
:102A900008B00B400CB00B402D12FF1F20B00340BC
:102AA00020B00B406D08FF1F24B0034024B00B4042
:102AB0002A12FF1F47282FD8334B2DE9F0411E5C07
:102AC000FF2E2BD0314B1B78002B2AD132062CD471
:102AD00072B62F4D2F4C2F46012326602B7062B605
:102AE00072B623681B060CD43B781BB9F4E72B782D
:102AF000002BF1D062B601F0ABFA72B6236818066B
:102B0000F5D5254B1B6800222A7062B6234A10783F
:102B100043FA00F0BDE8F081002070470020BDE8D6
:102B2000F081FFF7B5FE3206D2D572B61C4DDFF844
:102B30007C801C4C06F04007FFB206F03F06D8F838
:102B40000030DFB123F01003C8F800300123266005
:102B5000134A2B7062B672B6236819060CD4137828
:102B60001BB9ECE72B78002BE9D062B601F070FAC4
:102B700072B623681B06F5D50B4BC3E743F0100371
:102B8000C8F80030E2E700BF587000002A12FF1FAB
:102B90002C12FF1F00B0034010B003402912FF1F8A
:102BA0002B12FF1F00B00B4010B00B400CB00B40BD
:102BB00008B5104C08E0236859050DD423681A05A0
:102BC0000FD42368DB0411D423685803F3D500F035
:102BD00061FA23685905F1D500F00EF823681A054B
:102BE000EFD500F009F82368DB04EDD500F004F818
:102BF000EAE700BF3480044008B5FFF7D9FF00BF03
:102C0000014B10221A80704700200540704700BF1A
:102C1000094908B50B6830B16A461844A2F500525C
:102C2000904202D20860184608BD03F0DBFB0C237B
:102C300003604FF0FF3008BD7008FF1F10B4114B48
:102C400053F8302092F8804234B1012379B182F8F0
:102C500080305DF8044B704703EBC0035B681A6873
:102C600051B922F002021A605DF8044B704782F8F5
:102C700000315DF8044B704742F003021A605DF8C2
:102C8000044B7047A07000001C4A02EBC0030129EE
:102C90005B6811D004291BD052F83000002280F864
:102CA000802229B1022920D0032922D01A6070473E
:102CB0004FF480721A60704752F830004FF4A272DD
:102CC00080F880121A601A6822F020021A60704799
:102CD00052F830104FF4A272012081F880021A607D
:102CE0001A6842F020021A60704740F203121A601C
:102CF00070474FF481721A60704700BFA0700000E7
:102D000030B4054B054D064C002210211A602A6094
:102D10002060196030BC704714D0034004D00340D9
:102D200000D00340704700BF3F2801D8FFF786BF9F
:102D3000704700BF3F2806D8044B53F8303093F853
:102D40000002C0B270470020704700BFA0700000B2
:102D50003F2801D8FFF798BF704700BF2DE9F8431F
:102D6000054672B6204F214B214A1B683C68126809
:102D700062B6520102D5322B88BF013495B3C3F538
:102D8000EA331C4EDFF86490DFF86480BF334FF401
:102D90007A72A6FB031302FB04F404EB931472B6DD
:102DA000D9F800103A68D8F800E062B6C1F5EA3305
:102DB000BF33A6FB03031EF0806FC4EB93134FF4E5
:102DC0007A7002D0322988BF013200FB0233B3F59A
:102DD0007A7F04D3013D05D004F57A74DFE701F072
:102DE00037F9DCE7BDE8F8833012FF1F18E000E098
:102DF00004ED00E089888888F8B53F4B3F49DFF84B
:102E00001CC13F4E3F4ADFF818E13F4D3F4C404F59
:102E10004FF0006018604FF0805018604FF0005085
:102E200018604FF0804018604FF00040186000209C
:102E3000086028234EF6FF71CCF80010CEF8003061
:102E400033600EF5012E13602B60236005F500251D
:102E50003B6004F50024B36207F50027936206F592
:102E6000012602F501220EF1100E05F6E87504F6B2
:102E7000E87407F57F67103220362B602360CEF8A8
:102E800000303B6013603360224EBB6193610922C6
:102E90003260A7F5002706F58056203F08363860D7
:102EA0003160BB60F36047F8042C06F5FD2607F59A
:102EB000FE2706F2FC76043730603960B360FB60B1
:102EC00046F8042C0836C7F8FC0F06F6FC761248C4
:102ED00031602B6023600260FFF77CFDFFF722FF6B
:102EE0001420FFF73BFF00F00FFD4FF48C70BDE89E
:102EF000F840FFF733BF00BF04E100E00480034067
:102F0000148003401C800340248003402C80034035
:102F1000348003400080034000900B400880034051
:102F20000C800340431E032B14D872B60A4951F893
:102F3000230068B170B4094C058834F81320466842
:102F400041F82360521B24F8132062B670BC70470E
:102F500062B67047002070478C12FF1F9413FF1F4A
:102F6000013803280BD872B6074B53F8203043B111
:102F700000205B680130002BFBD162B67047002057
:102F800070471846F9E700BFE012FF1FF0B472B6B1
:102F90001A491B4E012311F8014B194F9A002407BF
:102FA00042F0010505D556F8324064B156F8352097
:102FB000BAB10133052BEED162B6124B00221A7062
:102FC000F0BC00F023BD0F4C0F4D217807EB4313ED
:102FD000083001395860217047F8325062B6F0BCB1
:102FE0007047084A0949137807EBC5040830013BCC
:102FF0006060137047F8351062B6F0E7D8720000D1
:103000000000FF1F0913FF1F88004000C800400098
:10301000431E032B1DD81B4A400140F0100030B462
:10302000104472B6184CE25C032A1BD8DFE802F0A9
:103030000212151703220D88E25410F0080F14BF76
:10304000C823882343EA054308314160036062B620
:1030500030BC704708300222EDE70522EBE708306C
:103060000422E8E7094A52F8230038B1084A52F826
:103070002300416042F8231062B6E9E742F82310CA
:10308000034AF7E70000FF1F1813FF1FE012FF1F9E
:10309000F012FF1F2DE9F04FDFF814B3DFF814A38F
:1030A00087B044E0AD4F4FEA930807EBC809013EF3
:1030B000D9F8042003F00803F6B2A2F1080003F0E7
:1030C000FF04002B40F0038157F838301B0C99B2F5
:1030D00022F8081C002B00F0F180A14B22F8064CCE
:1030E00042F8044C53F82620002A00F06C819D4DD4
:1030F00055F8263058609C4C45F8260034F81630B8
:10310000194424F8161000F061FC002800F05481E6
:10311000964A974B19F0080F00F1080018BF1346A4
:10312000C9F8040047F8383008238BF800309BF8C2
:103130000040E4B260071BD58E4B1B78ABB18E49C3
:103140000A7802F0FF032AB1013BDBB20B70002BBF
:1031500000F0B58389490A7802F0FF032AB1013BE8
:10316000DBB20B70002B00F0F68004238BF80030EC
:1031700004F0080303F0FF02002B00F0D5809AF85A
:103180000030DBB21E098DD19C08744F57F83420F3
:1031900007EBC401C2F38302013A49680C2A7ED8C6
:1031A000DFE802F081817D7D7D7D7D7D427D7D7DBD
:1031B00007000868724B734D01936C4B4A68724E5E
:1031C00047F8343081B240F281646D4B6A60286008
:1031D00000220120A1423A611A60BA61307000F207
:1031E000F680B1F5D06F80F0E882B1F5817F00F014
:1031F000D38200F2D881802900F04D81822940F0ED
:103200009282A988614B01F07F01042900F28C822F
:103210005F4C89000B44227062701A78930740F16A
:103220003883207002203AE1554B01931A6862B34B
:10323000584B5949544E18880C7896F800E04028AD
:10324000054684F0010C28BF402544F00204BEF17D
:10325000000F81F800C0A0EB050007EBC40C0CBF09
:103260008821C82180B28EF0010E41EA0541CCF8D8
:103270000420188086F800E02A4447F8341010B97A
:10328000402D18BF0022019B1A603E4B1A88B2F5F0
:10329000A06F04D100219A785970404B1A70404AAF
:1032A0000123137040E7374A158842F22100854216
:1032B00000F052812D4A47F83420F0E72B4A2C4B7E
:1032C00019F0080F18BF134647F838302CE700F004
:1032D0009DFB344A344952F82630002B00F02D81F2
:1032E00058688C5D42F8260003F10802C9F80420F2
:1032F000032C05D8DFE804F0120F150204228A55CA
:103300001A8819F0080F0CBF8823C82343EA024328
:1033100047F8383008E702228A55F1E703228A5538
:10332000EEE705228A55EBE7E00700F178812106F8
:1033300000F1A281A20706D51C4A1D49137802207C
:10334000DBB213700870E30602D5194B10221A7015
:1033500007B0BDE8F08F00F0C5FC06E70000FF1FD6
:103360008C12FF1F3812FF1F9413FF1FC80040006C
:10337000880040001413FF1F9D12FF1F1C13FF1F26
:103380003412FF1F0013FF1F9C12FF1FC0200740B5
:103390000C13FF1F4812FF1F0813FF1F9820074040
:1033A00094200740E012FF1F1813FF1F88200740DA
:1033B0008020074090200740B74A47F8380013782C
:1033C00001331370B0E643F82600B44D93E642F2A1
:1033D0002104A14200F0AD8000F20E81B1F5086F2A
:1033E00000F05481B1F5106F40F09D81AC4AA9788E
:1033F0001170AC4D042402E00134142C0CD057F8A9
:1034000034301906F8D505EBC40301345868083880
:1034100000F0FCFA142CF2D1A349A44BA44A029167
:10342000A449A54C9D4D039405964FF0000988468C
:103430001C4616460495206828B1456800F0E6FA57
:103440002846002DF9D100232360049B30681A46DA
:10345000002342F8293028B1456800F0D7FA284601
:10346000002DF9D100223260029A98F800301146FE
:10347000002241F8042B039A0291023B4FF0000115
:1034800022F81910032B00F2B481DFE813F0E201F7
:10349000AE01E201AE01894C022022706270EA881E
:1034A000824280F00D8286490D78402A45F0020E56
:1034B000944607EBCE0028BF4FF0400C04EB0C0302
:1034C00044600293CCEB02004FEA0C484FF0010934
:1034D0000022C82444EA080385F0010447F83E307E
:1034E00032700C70DFF8BCE1764BDFF8D481002835
:1034F00040F02081BCF1400F1BD144F0020407EBE7
:10350000C403029FDFF89CE15F60002A40F027813E
:10351000020442F0880286F800900D7007444EF8CD
:1035200034203B46402804D10020674A019910808E
:103530000B60664A01231370B1E68B5D032B00F22A
:10354000248101A252F823F0293100002931000022
:103550006D36000073360000928862B95C4ACD1D5A
:1035600011F8013B02F8013F8D42F9D1594A126826
:10357000862A00F0C9805249524E0878327840F0CD
:10358000020580F00100087007EBC501002A4FF02A
:103590000000486082F001020CBF8821C82147F872
:1035A0003510327086E640F20232914240F0B0802F
:1035B000A98801F07F01042900F2B5806A88002AF9
:1035C00040F0B180444C89000C448146217841F0A0
:1035D000020121700020029080468446044638494A
:1035E0000D7845F0020E07EBCE03B9F1000F5C60D9
:1035F0000CBF8824C8246DE742F22124A14240F088
:103600008E80A988002940F04281344B344A354CE1
:103610001B68AD78136081460A462570DAE72B49AE
:10362000204B3148264EDFF8B0C0304DDFF8D4E0F3
:103630002F4F02240C702F4C18605C6098602E484D
:10364000D8601A619A610D2332702C4C8CF80030CE
:103650002B4EFF232B7001209F258EF800303A70EF
:1036600033702570087007B0BDE8F08F00238B55CC
:103670005AE501238B5557E51749224B80220D202F
:1036800008701A70A2077FF55EAE55E6044A0B4C2F
:103690001278227003E700BF0913FF1F3812FF1FC3
:1036A0001413FF1F0000FF1FF012FF1F8C12FF1FDB
:1036B000E012FF1F1813FF1F9413FF1F0C13FF1FAF
:1036C0000813FF1F9C12FF1F4812FF1F9420074082
:1036D0009B13FF1F9C13FF1FC02007403012FF1FCA
:1036E000A413FF1F2C13FF1F8800400088200740F1
:1036F000982007404C12FF1FA012FF1F8420074094
:103700008C20074080200740754A0F21117032E756
:10371000B1F5A06F07D100224FF001095AE742F23C
:1037200021329142F7D06F4B0F221A706E4A01235B
:103730001370B4E540287FF6E0AE44F002040EEBCF
:10374000C401029E4E60AAB183F80090674A88F8CF
:1037500000503346403840334EF83420E5E6029BB3
:1037600086F80090020442F0C8020D7003444EF83F
:103770003420D7E683F80090029B5D4A88F8005019
:10378000403840334EF83420CFE619F0080F0CBF14
:10379000022303238B55C7E4A98801F07F01042984
:1037A000C1D86A88002ABED14E4C89000C4481469B
:1037B000217821F0020121700CE74E4A5468002C58
:1037C000B1D06888B5F804E003E00C325468002CEE
:1037D000A9D013888342F8D153887345F5D1000AE4
:1037E00003280CBF2078108959E64FF0010388F8B0
:1037F000003009F10109B9F1040F04F1040406F1E4
:10380000040608F101087FF416AE3B4B059E3B4DC4
:10381000DFF8F080002018704FF0010918F8013B24
:1038200005F8043B1A0719D44FEA890444F0020250
:1038300044F00304002347F8323047F83430304B6B
:103840009D4209F10109E9D196F8009089F0010241
:10385000C0E64FF0000388F80030CAE700F0B6F881
:1038600018B307EB49134FEA890408305860204B1E
:1038700047F8343000F0AAF868B144F0010307EBD0
:10388000C30208305060194A47F83320CEE781461A
:10389000A0E6022003E6184B44F001021B7847F82B
:1038A0003200154A01331370C0E7134B124A1B78DC
:1038B0004FEA8904013347F834001370DAE700BE99
:1038C0004028844628BF4FF0400C04EB0C03CCEB9F
:1038D00000004FEA0C48029300224FF001097EE6F7
:1038E0009D12FF1FC020074094200740C8004000E1
:1038F00088004000DC7200000913FF1FC42007404D
:10390000D4200740D87200002DE9F04100F03CFCC3
:10391000002323491A4601EBC30041F83320013349
:10392000142B42604FF000041D48F4D11D491E4A7B
:103930000B68DFF88C801D4F1D4D1E4EDFF884C0D4
:10394000DFF884E043F480230B60136843F0407396
:103950001360C0F3072388F8003001F52831C0F365
:1039600007433B70000EFF23CC3102F5C9222870BB
:1039700002F584728CF800300F4D8EF800300F483D
:103980003370012308F8083C70260C704FF40014C3
:10399000102107F82C3C2E7004601170BDE8F081F6
:1039A0000000FF1F3480044000D80040B0200740D2
:1039B000B42007401020074035E400E004E100E0B7
:1039C0009C200740802007408820074072B60D48A1
:1039D0000268B2FA82F30B2B10DC4FF00041D940A1
:1039E00022EA0102026062B6074803EBC303DB0070
:1039F000C2180021C15010465160704762B60020C5
:103A0000704700BF7408FF1F9803FF1F0D4B0E4A3D
:103A1000C31AA2FB03231B090B2B0CD80B4A1278E9
:103A200052B972B60A484FF00041026821FA03F316
:103A30001A43026062B67047064A1278002AF0D034
:103A4000FFF7A4BA9803FF1F398EE3380913FF1F4D
:103A50007408FF1F1413FF1F38B50F4D286878B185
:103A600043880288C118013393420C7A02D2438002
:103A7000204638BDFFF7CAFF002320462B6038BD23
:103A8000064B1B782BB10320FFF74CFA2860002867
:103A9000E6D14FF0FF3038BD2813FF1F1413FF1F6E
:103AA00010B5094C206818B143881844007A10BD3D
:103AB000064B1B782BB10320FFF734FA2060002857
:103AC000F2D14FF0FF3010BD2813FF1F1413FF1F5A
:103AD000044B054A1B6890881BB11A885B88D31A6F
:103AE000184470472813FF1F9413FF1F0B4B1B78BC
:103AF0009BB110B50A4C206848B1FFF787FF00233F
:103B000003202360FFF70EFA30B1FFF77FFF032099
:103B1000FFF708FA0028F8D110BD70471413FF1FF3
:103B20002813FF1F2DE9F04FDFF8F89083B0012232
:103B300089F80020019169B3DFF8EC80364F019ECF
:103B40008346D8F80000B0B3344D4488C4F1400136
:103B5000B14228BF314604EB010E00221FFA8EFE4F
:103B60002A70761AA0F802E000F1080251B1013C77
:103B7000224459441BF8014B02F8014F8B45F9D1FF
:103B8000B0F802E0BEF13F0F0BD8254A05211170B5
:103B9000002ED6D10198002389F8003003B0BDE88B
:103BA000F08F4022028001460420FFF731FA002204
:103BB000C8F80020E9E73A782AB3184D4DF2E90435
:103BC0004FF0010A07E0013C16D02A78A2B900F0B4
:103BD0003FFA3A78BAB10420FFF7C2F90728F2D8C1
:103BE00089F800A0FFF7F2FEC8F800000028ACD169
:103BF0000C4B013C1870E8D101234FF0FF302B70C3
:103C000003B0BDE8F08F00234FF0FF3089F800309B
:103C100003B0BDE8F08F00BF1413FF1F2413FF1F74
:103C20001C13FF1F1D13FF1F2013FF1F00B583B0C0
:103C300002AB012103F8010D1846FFF773FF03B033
:103C40005DF804FB38B50E4D0E4C28680123237037
:103C500028B1408800232370C0F1400038BD0A4BD2
:103C60001B7813B90020207038BD0420FFF778F9C5
:103C70000728F7D8FFF7AAFE28600028E9D1F1E766
:103C80002013FF1F1D13FF1F1413FF1FF8B5114B47
:103C90001B788BB1104E114D346801272F7064B121
:103CA0000F4A638800271770214623800420FFF7FE
:103CB000AFF9376000232B70F8BDFFF787FE084B84
:103CC00028B1014604201C70FFF7A2F9F2E71F702B
:103CD000F0E700BF1413FF1F2013FF1F1D13FF1F6A
:103CE0001C13FF1F38B50E4B1B7873B90D4C2168A0
:103CF00061B103F0FF054B880B800420FFF788F9C2
:103D0000256038BD084B01221A7038BDFFF75EFEF2
:103D10000028F7D00146BDE838400420FFF778B905
:103D20001D13FF1F2013FF1F1C13FF1F70B5EFF3A0
:103D3000108272B60C4C206880B10C4E002543698D
:103D4000236073B19D6102B962B645778368984775
:103D5000EFF3108272B620680028F0D102B962B683
:103D600070BD3360EFE700BF3013FF1F3413FF1F38
:103D7000FFF7DCBF024A136801331360704700BFCE
:103D80003012FF1FF8B50E4671B17AB107461446DE
:103D900000253B6816F8011B1B6838469847013C14
:103DA0000544F6D12846F8BD0846F8BD1046F8BDD2
:103DB00030B5044683B002252A4601A80549FEF71E
:103DC00093FC23682A4601A95B682046984703B004
:103DD00030BD00BFA0720000F0B507468BB0002ACE
:103DE00033D0012A08BF0A2251B3212400E0F4B2E3
:103DF000B1FBF2F502FB1511C8B2092900F130013F
:103E000098BFC8B20AA988BF3730214488BFC0B262
:103E100001F8240C661E2946002DE8D133B1013C7F
:103E2000E4B20AAB23442D2203F8242C3B6801AAF8
:103E300011195B683846C4F1220298470BB0F0BDF7
:103E400030228DF825202124E8E70368C9B21B68D9
:103E500098470BB0F0BD00BF2DE9F04357EC106B55
:103E600085B005460C4610EE102A3B4610EE100AAF
:103E7000394601F059FF002840F0B28027F0004990
:103E8000304649464FF0FF32594B01F04DFF90B993
:103E9000304649464FF0FF32554B01F027FF50B9ED
:103EA0002B6854495B682846032298478046404661
:103EB00005B0BDE8F0834FF060424F4B30463946C5
:103EC00001F028FF002872D14FF060424B4B304682
:103ED000394601F001FF002869D100220023304655
:103EE000394601F0F9FE002864D18146002C67D0E4
:103EF000434900204FF000083BA3D3E9002308F119
:103F0000010801F077FC5FFA88F39C42F4D802467E
:103F10000B463046394601F0BBFA0F46064601F023
:103F200019FF804601F0F0FB02460B463046394649
:103F300001F0ACFA4B4606460F460A224146284697
:103F4000FFF74AFF0F2C28BF0F2404F101092E238D
:103F500080465FFA89F98DF8003001240022294B50
:103F60003046394601F046FC0F46064601F0F2FEA7
:103F700004AB2344C0B200F1300203F8102C01F06E
:103F8000D3FB02460B463046394601F07FFA013436
:103F9000E4B24C4506460F46E0D12B6822465B68EA
:103FA000284669469847404605B0BDE8F0832B682F
:103FB000154977E707F100431F464FF0010995E7E0
:103FC00000220F4B3046394601F062FA01F0C2FE82
:103FD0004B4601460A222846FFF7FEFE804666E76A
:103FE0002B680A495EE700BF000000A09999B93F1D
:103FF000FFFFEF7FAC720000FFFFEF41FFFFEFC15B
:104000000000E03F00002440A8720000A4720000FD
:1040100008B5FCF72FFCFCF7C3FC00F019F8FAE731
:1040200002F00EBA02F014BAFFF760BDFFF738BD18
:10403000FFF712BDFFF74CBDFFF728BEFFF702BE2A
:1040400008461146FFF76EBD0846FFF7EFBD00BFFB
:104050002DE9F843314E337893B1314F3A787AB93C
:104060000122D9073A7036D49A0719D400225B0787
:104070003A7005D52B4B1A6812B1EFF305820AB1DD
:10408000BDE8F883EFF3108172B6186818B1264CBA
:104090002278002A2ED00029F2D162B6BDE8F8833A
:1040A000DFF8908098F80020002ADFD0DFF88890B1
:1040B000002405E0013498F80030E4B2A34212D99C
:1040C00059F824502B6828461B6998470028F1D0DE
:1040D0002B699847EEE7FFF7FBFCC8B9134B1B7839
:1040E0001BB93378C0E73378C0E7337803F0FE03B9
:1040F0003370B9E745691D60012323705DB1AA6182
:1041000001B962B600254577836898472570B7E7FF
:1041100000F078F8E2E7064B1D60F1E78808FF1F22
:104120004113FF1F3C13FF1F4013FF1F2E09FF1FEA
:104130003813FF1F5C13FF1F4413FF1FF0B44D1E05
:104140002E46002400E00134B0FBF2F302FB130022
:10415000092800F130078ABF3730F8B2C0B206F83C
:10416000010F1846002BEED10A1953704CB110788C
:1041700015F8016F28700133E01A834202F80169D3
:10418000F5DB0846F0BC704772B6184A184B19495F
:104190001160702280211A701A46197013781B065C
:1041A000FCD510B5144B84B0186862B6134B144C90
:1041B000984298BF00EB800001A998BF40000A22F6
:1041C000FFF7BCFF01A92046002311F8012B0133A2
:1041D0003AB10A2B20F8022FF7D11623237004B02E
:1041E00010BD5B00DBB2237004B010BD04000240C0
:1041F00000000240000007410C0002407F9698003A
:104200001809FF1F704700BF2DE9F04F2DED028BFD
:10421000DFF824A38BB057EC106B55EC114B00F07A
:104220008FF99AF90080B0EE408AF0EE608AB8F11A
:10423000FF3F48D022462B462046294601F074FD18
:10424000834600283FD132463B463046394601F08E
:104250006BFD8146002840F09080304639460022B0
:10426000002301F02FFD002836D000220023204635
:10427000294601F027FD8346B8B19FEDA57B0122B9
:10428000A94BCDF820900092CDE90267CDE9044515
:104290008DED067B0193B8F1000F5BD09FED9E0B77
:1042A0000BB0BDEC028BBDE8F08F45EC104B00F07D
:1042B000A7FF40B1002200232046294601F00CFD53
:1042C000002840F0C580B0EE480AF0EE680A0BB056
:1042D000BDEC028BBDE8F08FB0EE480AF0EE680A44
:1042E00000F08EFF8046002861D04FF000084FF0AC
:1042F000000951EC180B42464B4601F0E3FC002844
:10430000E1D047EC106B00F07BFF0028DBD045ECE0
:10431000104B00F075FF0028D5D09AF90030824A82
:10432000019204210022022BCDE90267CDE9044568
:10433000CDE906890091089203D0684600F068FF35
:1043400070B902F04FF82223036009E09FED707B03
:104350008DED067B684600F05BFF002800F08E8044
:10436000089B1BB102F03EF8089B03609DED060B15
:104370000BB0BDEC028BBDE8F08F0022002320467D
:10438000294601F09FFC00289DD09FED630B664BF2
:10439000CDF820B00122B8F1020FCDE90267CDE9D6
:1043A00004458DED060B8DE80C00D3D18FE747EC6B
:1043B000106B00F025FF002897D045EC104B00F063
:1043C0001FFF002891D053EC182B18EE100A194645
:1043D00001F0AAFC00287CD103239AF90080009305
:1043E000514B0890CDE90267CDE904450193B8F13E
:1043F000000F48D1DFF844914FF0604800220023BD
:1044000030463946CDE9068901F066FC002894D093
:104410000022464B2046294601F0ECF904460D46A1
:1044200045EC104B00F000FF204653EC102B2946C2
:1044300001F048FC002849D13D4B9AF900804FF02B
:104440006042CDE90623B8F1020F7FF476AF78E73A
:10445000354A9AF90030CDF820B00121CDE9026744
:10446000CDE904458DE80600002B3FF46FAF3149DC
:104470000020022BCDE906017FF46CAF01F0B2FF02
:10448000212303606CE79FED267B0022002330464A
:1044900039468DED067B01F01FFC0028D3D00022A9
:1044A000224B2046294601F0A5F904460D4645EC6D
:1044B000104B00F0B9FE204653EC102B294601F0BA
:1044C00001FC18B91B4B0022CDE906239AF90080A4
:1044D000B9E7154B9AF90090CDF820800122CDE97B
:1044E0000267CDE904458DE80C00B9F1000F3FF4F7
:1044F0002DAF002200231046194601F0A5FAB9F1AC
:10450000020FCDE90601B9D024E700BFAFF3008068
:104510000000000000000000000000000000F03F6C
:10452000000000000000F07F307300000000E03F5A
:10453000FFFFEFC70000F0FF2F09FF1FFFFFEF474E
:104540002DE9F04F51EC110B21F0004858EA00041E
:1045500093B03CD053EC102B6D4E23F00044B4428A
:1045600010EE10AA1D462BDC894611EE10EA26D06B
:10457000B04525DC664EB04577D0002D16461F4667
:10458000CDE9000175DB4FF0000BBEF1000F2DD11E
:104590005F4B984500F089805E4B98455ED0B9F13D
:1045A000804F00F0DE835C4B99451FD1002D1DDB51
:1045B00047EC106B13B0BDE8F04F00F049BD5AB1A5
:1045C00004F1404404F5801454EA0A0306D19FED37
:1045D0004A0B13B0BDE8F08FA045CBDD4F4813B0B8
:1045E000BDE8F04F00F018BE4FF0000B47EC106B29
:1045F00000F0FEFD51EC100BBAF1000F1ED0ED0FD4
:1046000005F1FF3A5BEA0A0363D0454B984540F356
:104610008D8003F10473984540F33884414B9C42EC
:1046200062DDB9F1000F62DD35A3D3E90023104646
:10463000194601F0DFF841EC100BCAE724B1354B05
:1046400025F040429A42DAD1B9F1000FC0F2CB8393
:10465000002DC0F2748341EC100BBAE7B9F1000FE2
:10466000C0F27A8447EC106BB3E7BEF1000F84D040
:10467000A6E72D4B984529DCA3F15473984582DDBC
:104680004FEA2853A3F2FF33142B40F37F84C3F186
:1046900034032EFA03F202FA03F39E457FF473AF5C
:1046A00002F00102C2F1020B6FE704F1404303F58F
:1046B000801353EA0A038AD01A4B9C4240F3858345
:1046C000B9F1000F13DB9DED000B82E74FF0020BF9
:1046D0005BE732463B461046194600F0D7FE0246DD
:1046E0000B4601F0B1F9B6E7B9F1000F9CDB9FED85
:1046F000060B6EE7AFF30080000000000000F03F03
:104700009C7500883CE4377E00000000000000003B
:104710000000F07F0000F03F0000E03FA06E0000CE
:104720000000E041FFFFEF3FFFFF3F43B4F5801F74
:104730004FF0000205DAD64B01F05CF86FF034025E
:104740000C462315D34EC4F31304A3F2FF331344D2
:1047500044F07F55B4421A460D9345F4401540F39A
:104760004983CD4B9C4240F32D849FEDB37B8DED6F
:10477000087B8DED0E7B9FEDB27B13468DED067BA6
:1047800001330D93A5F580154FF00008DDE90623F0
:104790002946CDE90A0100F079FEDDE90623064647
:1047A0000F46DDE90A0100F073FE02460B460020C9
:1047B000BA4901F049F903460C46CDE910340246E6
:1047C0000B463046394601F015F86B1043F00053A4
:1047D00003F5002303EB08050A4600230146CDE953
:1047E00002120293DDE902890024CDE904122B466E
:1047F00022464046494600F0FDFF02460B46304641
:10480000394600F043FEDDE9062306460F46204602
:10481000294600F03BFE02460B46DDE90A0100F0A6
:1048200035FE42464B4600F0E5FF02460B46304659
:10483000394600F02BFEDDE9102300F0DBFFDDE957
:104840000445CDE9060122462B462046294600F0C4
:10485000D1FF7DA3D3E9002304460D4600F0CAFF33
:104860007BA3D3E9002300F013FE22462B4600F081
:10487000C1FF79A3D3E9002300F00AFE22462B46AC
:1048800000F0B8FF76A3D3E9002300F001FE224632
:104890002B4600F0AFFF74A3D3E9002300F0F8FD2E
:1048A00022462B4600F0A6FF71A3D3E9002300F0B7
:1048B000EFFD224606460F462B462046294600F0CD
:1048C00099FF02460B463046394600F093FF4246B8
:1048D00004460D464B46DDE9040100F0D9FDDDE953
:1048E000062300F087FF22462B4600F0D1FD42460A
:1048F00006460F464B464046494600F07BFF0022E5
:10490000674BCDE90A0100F0C3FD32463B4600F09B
:10491000BFFD02980D46044622462B4640464946B6
:1049200000F068FF0022804689465D4B20462946FC
:1049300000F0ACFDDDE90A2300F0A8FD02460B46BD
:104940003046394600F0A2FDDDE9042300F052FFB5
:10495000224606460F462B46DDE9060100F04AFFD7
:1049600002460B463046394600F092FD06460F4699
:1049700002460B4640464946CDE9048900F088FDD1
:1049800002983DA3D3E9002304460D4600F032FF10
:10499000DDE90423804689462046294600F076FD5D
:1049A00002460B463046394600F070FD34A3D3E989
:1049B000002300F01FFF34A3D3E9002306460F466F
:1049C0002046294600F016FF02460B46304639467F
:1049D00000F05EFDDDE90E2300F05AFD06460D985D
:1049E0000F4600F0A1FE324604460D463B464046C7
:1049F000494600F04DFDDDE9082300F049FD22465F
:104A00002B4600F045FD029822462B46CDE90201D7
:104A100000F03CFDDDE9082300F038FD42464B463E
:104A200000F034FD02460B463046394600F02EFDBC
:104A30008046894636E000BF00000000000000000C
:104A4000000000000000F03FEF4E454A287ECA3FBC
:104A500065DBC9934A86CD3F01411DA96074D13FF2
:104A60004D268F515555D53FFFAB6FDBB66DDB3F04
:104A7000033333333333E33F000000E009C7EE3F35
:104A8000FD033ADC09C7EE3FF5015B14E02F3EBEA3
:104A9000000040438E98030079B60B000000F03F01
:104AA000000008400BF1FF3353EA0A0300F088814D
:104AB0009FEDD77B8DED067BDDE900AB53465C4671
:104AC000CDE9003400230093DDE90045504622463D
:104AD0002B46594600F0DAFCDDE9022300F08AFE9D
:104AE000524606460F465B464046494600F082FE67
:104AF00002460B463046394600F0CAFC2246804644
:104B000089462B46DDE90201CDE9048900F072FEF9
:104B10000B46024606460F464046494600F0B8FCA2
:104B2000D54B994204460D468A4640F3238101F154
:104B30003F4303F5E003034340F01882B6A3D3E9F3
:104B40000023DDE9040100F0A3FC324680468946DB
:104B50003B462046294600F099FC02460B4640465B
:104B6000494601F0D7F8002840F00082A8464FEAF5
:104B700028534FF48012A3F2FE3342FA03F3534456
:104B8000C3F30A52BD4DA2F2FF321541C3F3130B1A
:104B90000020C2F1140423EA05014BF4801BBAF192
:104BA000000F02460B464BFA04FB30463946B8BFAD
:104BB000CBF1000B00F06AFC02460B4606460F469E
:104BC000DDE9040100F064FC4FEA0B5A002494A3D1
:104BD000D3E9002320460D4600F00CFE3246804605
:104BE00089463B462046294600F050FC02460B46CB
:104BF000DDE9040100F04AFC8BA3D3E9002300F0B7
:104C0000F9FD8BA3D3E9002306460F46204629462B
:104C100000F0F0FD02460B463046394600F038FC05
:104C200006460F4602460B464046494600F030FC19
:104C300042464B4604460D4600F028FC02460B4611
:104C40003046394600F022FC2246804689462B46F3
:104C50002046294600F0CEFD77A3D3E9002306467F
:104C60000F4600F0C7FD76A3D3E9002300F00EFC49
:104C700032463B4600F0BEFD73A3D3E9002300F0AB
:104C800007FC32463B4600F0B5FD71A3D3E9002393
:104C900000F0FCFB32463B4600F0ACFD6EA3D3E9CE
:104CA000002300F0F5FB32463B4600F0A3FD024630
:104CB0000B462046294600F0E9FB06460F46024611
:104CC0000B462046294600F095FD0022CDE9000163
:104CD0004FF080433046394600F0D8FB02460B4681
:104CE000DDE9000100F0B0FE424606460F464B46A5
:104CF0002046294600F07EFD42464B4600F0C8FBA8
:104D000002460B463046394600F0C0FB22462B4691
:104D100000F0BCFB02460B460020594900F0B6FBF0
:104D20008A44BAF5801F02460B46C0F25B815146A9
:104D3000DDE9062300F05EFD41EC100B49E404F1CF
:104D4000404404F5801454EA0B0300F03781BBF1B2
:104D5000010F7FF480AC024601F1004343EC102BBD
:104D600037E432463B463046394600F043FD41ECDD
:104D7000100B2EE4434B21F00048984540F3158179
:104D8000414B0B4403430CD132463B4600F07EFBC3
:104D900002460B46DDE9040100F0A8FF00283FF4BD
:104DA000E6AE2FA3D3E90023DDE9060100F022FDE2
:104DB0002BA3D3E9002300F01DFD41EC100B08E408
:104DC0009FED297B8DED067B76E6B9F1000FBFF6EE
:104DD0008EACDDE9003400EE103A04F1004300EE41
:104DE000903AFFF7F6BB02460B460020244900F03C
:104DF0002BFE2DE49FED1E7B8DED087B8DED0E7B54
:104E00009FED037B4FF000088DED067BBEE400BFF5
:104E1000000000000000F03FFE822B654715973C24
:104E200000000000432EE63FEF39FAFE422EE63F37
:104E3000396CA80C615C20BED0A4BE726937663E96
:104E4000F16BD2C541BDBB3E2CDE25AF6A56113F8A
:104E500093BDBE166CC1663F3E5555555555C53F71
:104E600059F3F8C21F6EA501000000000000F0BF5A
:104E70000000000000000000FFFF8F40FFFF0F0058
:104E80000000F03FFFCB904000346F3F6C4B9C42E2
:104E90007FF72AAC6B4B9C423FF7C3AB0022694BB8
:104EA00000F0F4FA56A3D3E9002304460D4600F0BF
:104EB000A1FC55A3D3E90023804689462046294614
:104EC00000F098FC0022CDE902015F4B2046294604
:104ED00000F090FC02460B464DA1D1E9000100F024
:104EE000D5FA22462B4600F085FC02460B460020F0
:104EF000564900F0CBFA22462B4606460F4620467E
:104F0000294600F077FC02460B463046394600F051
:104F100071FC41A3D3E9002300F06CFC02460B4670
:104F2000DDE9020100F0B2FA02460B4604460D46E6
:104F30004046494600F0ACFA42464B460020CDE9D7
:104F4000020100F0A3FA02460B462046294600F073
:104F50009DFA80468946A5E532463B460020394900
:104F600000F072FD41EC100BFFF733BB2CA3D3E92B
:104F70000023DDE9060100F03DFC29A3D3E900236D
:104F800000F038FC41EC100BFFF723BBBEF1000F23
:104F90007FF42AABC3F1140348FA03F202FA03F3D5
:104FA000984527D0F346FFF7F7BA284B98453FF7C7
:104FB000DEADDDE900349A469B4607E602460B4625
:104FC000FFF789BB9FED187B8DED087B9FED187B6C
:104FD0008DED0E7B9FED187B4FF480288DED067BC9
:104FE000FFF7D4BB584643EC102B00F0B1F951EC5D
:104FF000100B9DE602F00102C2F1020BFFF7CCBAE2
:10500000000000604715F73F44DF5DF80BAE543EEB
:10501000555555555555D53FFE822B654715F73FDC
:105020009C7500883CE4377E0000004003B8E23FF6
:1050300006D0CF43EBFD4C3E000000000000F83FDF
:10504000FEFFEF3F0000F03F0000D03F0000E03FD8
:105050002DE9F041654955EC104B0E462940B1420F
:1050600000F09780002D2B4610EE102A74DD2F15CE
:105070007FD0A7F2FF37C3F31303F90743F480137C
:1050800065D403EBD27100260B447F105200B64664
:1050900016204FF400110EEB01049C424FEAD2752A
:1050A0004FEA420203DC1B1B04EB010E0E440138E5
:1050B00005EB43034FEA5101EDD1844620244FF024
:1050C000004109E020D003EBD275013C4FEA5101C9
:1050D0002B444FEA420220D09E4501EB0C05F1DA49
:1050E000002D05EB010C09DBF0469542CEEB0303E6
:1050F00000D9013B521B0844C646E4E7BCF1000F4F
:10510000F2DB0EF10108F0E795421ED8002D05EB09
:10511000010C50DB98460023ECE7134304D0421CFB
:105120004DD000F00103184440087110F30701F15D
:105130007F5101F5001148BF40F0004001EB0753DB
:10514000024643EC102BBDE8F0817346BBE75B00E1
:1051500003EBD273520094E725F00041214328D09D
:10516000ADBB2F46D30A153F5205002BFAD0DD0206
:1051700028D4002100E001465B00DC0201F10100BF
:10518000F9D5C0F1200422FA04F423437F1A8240A7
:105190006FE710EE102A2B4610EE100A294600F099
:1051A00029FB22462B4600F073F941EC100BBDE8B9
:1051B000F081BDE8F081BCF1000FA2DAAAE7013668
:1051C0002046B2E720244FF0FF310020DBE710EE4D
:1051D000102A2B462046294600F058F902460B4675
:1051E00000F032FC41EC100BBDE8F0810000F07FD4
:1051F00053EC102B23F0004343EC102B704700BFFF
:1052000010EE903A43F0004000F58010C00F704758
:1052100000207047FFFFFFFF9FED010B704700BFAD
:10522000000000000000F87FF0B553EC102BC3F332
:105230000A56A6F2FF30132883B019464FEAD374FA
:1052400010EE105A2FDC002849DB3F4E064103EADE
:10525000060717432CD0760833401D430CD04FF47B
:105260008023132821EA060643FA00F141EA0601E9
:105270000CBF4FF000450025344800EBC4042A461B
:10528000D4E9004510462B46224600F001F9CDE94D
:10529000000122462B46DDE9000100F0F7F841EC61
:1052A000100B03B0F0BD332806DDB0F5806F42D09F
:1052B00043EC102B03B0F0BDA6F213464FF0FF30C5
:1052C000F0400242F4D040080242D5D04FF0804373
:1052D00025EA000043FA06F646EA0005CCE723F08B
:1052E0000040104310EE107AE2D0C3F313000743DE
:1052F000784207431548590C3F0B490407F400272F
:1053000000EBC40047EA0103D0E9006719461046E4
:105310003B46324600F0BCF8CDE900013B46324640
:10532000DDE9000100F0B2F821F0004343EAC47166
:1053300041EC100BBEE710EE100A194600F0A8F879
:1053400041EC100BB6E700BFFFFF0F003873000001
:1053500053EC102B70B5C3F30A541946054614BB21
:1053600023F0004111432AD019460022384B394E10
:1053700010EE100A00F03EFAB54202460B461FDB63
:10538000C1F30A54363C2C4440F2FE7084421FDCC8
:10539000002C2DDD21F0FF4121F4E00141EA04530E
:1053A00043EC102B70BD40F2FF708442EBD110EE45
:1053B000100A194600F06CF841EC100B70BD70BD7E
:1053C0001FA3D3E9002300F015FA41EC100B70BDC8
:1053D00043EC112B9FED1C0B00F040F81AA3D3E90E
:1053E000002351EC100B00F005FA41EC100B70BDDE
:1053F00014F1350F13DA4CF250318D4243EC112B7E
:10540000E8DC9FED0F0B00F029F80DA3D3E9002392
:1054100051EC100B00F0EEF941EC100B70BD21F0D7
:10542000FF4121F4E001363441EA045310461946A5
:105430000022094B00F0DEF941EC100B70BD00BFFB
:1054400059F3F8C21F6EA5019C7500883CE4377EB5
:1054500000005043B03CFFFF0000903C53EC102B89
:1054600011EE900A23F0004100F0004041EA0003F1
:1054700043EC102B704700BF0B460146184600F066
:10548000ABBF00BF81F0004102E000BF83F00043EA
:1054900030B54FEA41044FEA430594EA050F08BFCF
:1054A00090EA020F1FBF54EA000C55EA020C7FEA93
:1054B000645C7FEA655C00F0E2804FEA5454D4EB10
:1054C0005555B8BF6D420CDD2C4480EA020281EADA
:1054D000030382EA000083EA010180EA020281EA12
:1054E0000303362D88BF30BD11F0004F4FEA013164
:1054F0004FF4801C4CEA113102D0404261EB410173
:1055000013F0004F4FEA03334CEA133302D05242F8
:1055100063EB430394EA050F00F0A780A4F10104B4
:10552000D5F1200E0DDB02FA0EFC22FA05F28018EE
:1055300041F1000103FA0EF2801843FA05F35941D4
:105540000EE0A5F120050EF1200E012A03FA0EFC53
:1055500028BF4CF0020C43FA05F3C01851EBE3717D
:1055600001F0004507D54FF0000EDCF1000C7EEB9A
:1055700000006EEB0101B1F5801F1BD3B1F5001FD8
:105580000CD349085FEA30004FEA3C0C04F10104F7
:105590004FEA445212F5800F80F09A80BCF1004F20
:1055A00008BF5FEA500C50F1000041EB045141EAA2
:1055B000050130BD5FEA4C0C404141EB010111F4A3
:1055C000801FA4F10104E9D191F0000F04BF01464E
:1055D0000020B1FA81F308BF2033A3F10B03B3F12C
:1055E00020020CDA0C3208DD02F1140CC2F10C02BC
:1055F00001FA0CF021FA02F10CE002F11402D8BF1A
:10560000C2F1200C01FA02F120FA0CFCDCBF41EAE5
:105610000C019040E41AA2BF01EB0451294330BDB4
:105620006FEA04041F3C1CDA0C340EDC04F1140491
:10563000C4F1200220FA04F001FA02F340EA030068
:1056400021FA04F345EA030130BDC4F10C04C4F1AE
:10565000200220FA02F001FA04F340EA030029468E
:1056600030BD21FA04F0294630BD94F0000F83F4D8
:10567000801306BF81F480110134013D4EE77FEABB
:10568000645C18BF7FEA655C29D094EA050F08BF07
:1056900090EA020F05D054EA000C04BF19461046E8
:1056A00030BD91EA030F1EBF0021002030BD5FEA2C
:1056B000545C05D14000494128BF41F0004130BD54
:1056C00014F580043CBF01F5801130BD01F00045A8
:1056D00045F0FE4141F470014FF0000030BD7FEA1B
:1056E000645C1ABF194610467FEA655C1CBF0B4616
:1056F000024650EA013406BF52EA033591EA030F2D
:1057000041F4002130BD00BF90F0000F04BF002124
:10571000704730B54FF4806404F132044FF0000557
:105720004FF0000150E700BF90F0000F04BF0021D0
:10573000704730B54FF4806404F1320410F0004536
:1057400048BF40424FF000013EE700BF42004FEA31
:10575000E2014FEA31014FEA02701FBF12F07F43AE
:1057600093F07F4F81F06051704792F0000F14BFAB
:1057700093F07F4F704730B54FF4607401F00045EF
:1057800021F0004120E700BF50EA010208BF704746
:1057900030B54FF000050AE050EA010208BF70473B
:1057A00030B511F0004502D5404261EB41014FF4A4
:1057B000806404F132045FEA915C3FF4DCAE4FF0A8
:1057C00003025FEADC0C18BF03325FEADC0C18BF8F
:1057D000033202EBDC02C2F1200300FA03FC20FAE0
:1057E00002F001FA03FE40EA0E0021FA02F114442D
:1057F000C1E600BF70B54FF0FF0C4CF4E06C1CEA42
:1058000011541DBF1CEA135594EA0C0F95EA0C0FB6
:1058100000F0DEF82C4481EA030621EA4C5123EA29
:105820004C5350EA013518BF52EA033541F4801158
:1058300043F4801338D0A0FB02CE4FF00005E1FB0B
:1058400002E506F00042E0FB03E54FF00006E1FB55
:1058500003569CF0000F18BF4EF0010EA4F1FF0498
:10586000B6F5007F64F5407404D25FEA4E0E6D41D8
:1058700046EB060642EAC62141EA55514FEAC520E9
:1058800040EA5E504FEACE2EB4F1FD0C88BFBCF565
:10589000E06F1ED8BEF1004F08BF5FEA500E50F116
:1058A000000041EB045170BD06F0004646EA0101DC
:1058B00040EA020081EA0301B4EB5C04C2BFD4EB0E
:1058C0000C0541EA045170BD41F480114FF0000E07
:1058D000013C00F3AB8014F1360FDEBF002001F075
:1058E000004170BDC4F10004203C35DA0C341BDCEF
:1058F00004F11404C4F1200500FA05F320FA04F0C1
:1059000001FA05F240EA020001F0004221F00041F4
:1059100010EBD37021FA04F642EB06015EEA430E67
:1059200008BF20EAD37070BDC4F10C04C4F1200597
:1059300000FA04F320FA05F001FA04F240EA02004A
:1059400001F0004110EBD37041F100015EEA430E1B
:1059500008BF20EAD37070BDC4F1200500FA05F23B
:105960004EEA020E20FA04F301FA05F243EA0203BA
:1059700021FA04F001F0004121FA04F220EA0200C9
:1059800000EBD3705EEA430E08BF20EAD37070BD0F
:1059900094F0000F0FD101F00046400041EB0101EF
:1059A00011F4801F08BF013CF7D041EA060195F0D1
:1059B000000F18BF704703F00046520043EB03038B
:1059C00013F4801F08BF013DF7D043EA0603704778
:1059D00094EA0C0F0CEA135518BF95EA0C0F0CD083
:1059E00050EA410618BF52EA4306D1D181EA0301C9
:1059F00001F000414FF0000070BD50EA410606BFC3
:105A00001046194652EA430619D094EA0C0F02D107
:105A100050EA013613D195EA0C0F05D152EA03364C
:105A20001CBF104619460AD181EA030101F000416A
:105A300041F0FE4141F470014FF0000070BD41F0B3
:105A4000FE4141F4780170BD70B54FF0FF0C4CF48D
:105A5000E06C1CEA11541DBF1CEA135594EA0C0FAC
:105A600095EA0C0F00F0A7F8A4EB050481EA030EF9
:105A700052EA03354FEA013100F088804FEA0333E0
:105A80004FF0805545EA131343EA12634FEA0222AE
:105A900045EA111545EA10654FEA00260EF000416F
:105AA0009D4208BF964244F1FD0404F5407402D2C1
:105AB0005B084FEA3202B61A65EB03055B084FEA52
:105AC00032024FF480104FF4002CB6EB020E75EB4F
:105AD000030E22BFB61A754640EA0C005B084FEA77
