:100000000C9450010C9481010C9481010C94810199
:100010000C9481010C9481010C9481010C94810158
:100020000C9481010C9481010C9481010C94810148
:100030000C9481010C9481010C9481010C94810138
:100040000C9481010C9481010C9481010C94810128
:100050000C9481010C9481010C9481010C94C010CA
:100060000C9481010C948A100C9460100C94810102
:100070000C9481010C9481010C9481010C948101F8
:100080000C9481010C9481010C9481010C948101E8
:100090000C9481010C9481010C9481010C940A113F
:1000A0000C9481010C9481010C9481010C948101C8
:1000B0000C9481010C9481010C9481010C948101B8
:1000C0000C9481010C9481010C9481010C948101A8
:1000D0000C9481010C9481010C9481010C94810198
:1000E0000C9481010C9465080C9470030C947E03AD
:1000F0000C94AB020C9422080C94CC070C942C03A7
:100100000C94F5070C94C6010C9466030C9404023D
:100110000C9418020C941E0E0C942E120C94C80110
:100120000C9478030C9490170C94C7010C94620300
:100130000C9426020C944B030C9458030C94DB078C
:100140000C94371B0C944F030C9466080C94EE0728
:100150000C9452030C9474030C9431030C9482039A
:100160000C94CB070C94F5010C9447030C946A0390
:100170000C9443030C945E020C945C030000220078
:10018000250028002B002E00310034000201000061
:10019000050108010B0100000A0B02090C0D0E08F5
:1001A0000703040100000000000000000000000040
:1001B000000000000000000000000000000000003F
:1001C00000001211100000000000000000000000FC
:1001D00000000000000000000000000000002100FE
:1001E000240027002A002D00300033000101000008
:1001F000040107010A010000200023002600290055
:100200002C002F003200000100000301060109014B
:1002100005050505070508080808020202020A0A82
:1002200008080404040401010101010101010303A0
:10023000030303030303040707070C0C0C0C0C0C4B
:100240000C0C0202020206060606060606060B0B48
:100250000B0B0B0B0B0B0102102020080810204089
:10026000102040800201020108040201010204087A
:100270001020408080402010080402018004020108
:100280008040201008040201080402010102040851
:100290001020408001020408102040802E12901788
:1002A00011241FBECFEFD1E2DEBFCDBF00E00CBFF7
:1002B00012E0A0E0B2E0E4E3FBE300E00BBF02C029
:1002C00007900D92AC3FB107D9F724E0ACEFB2E054
:1002D00001C01D92A93DB207E1F711E0CFE4D1E0E2
:1002E00000E006C021970109802FFE010E94B61A86
:1002F000CE34D10780E00807A9F70E94A7120C941A
:10030000881D0C940000CF92DF92EF92FF92CF9362
:10031000DF93B0918104A0E08111AB2F8091820422
:1003200090E0880F991FAC014A505E4FC09087043F
:10033000D0908804E0908904F0908A0430E020E0B6
:10034000FA01C591D491E881B90190E080E0EB23F6
:10035000EA130AC02F5F3F4F6C157D058E059F0580
:1003600078F36FEF7FEFCB01DF91CF91FF90EF90AC
:10037000DF90CF9008958230910538F0880F991F53
:10038000880F991F05970197F1F70895089508952B
:10039000AF92BF92CF92DF92EF92FF920F931F9393
:1003A000CF93DF936C017B018B01040F151FEB01D1
:1003B0005E01AE18BF08C017D10759F06991D60188
:1003C000ED91FC910190F081E02DC6011995892BEA
:1003D00079F7C501DF91CF911F910F91FF90EF90B9
:1003E000DF90CF90BF90AF900895FC01538D448D66
:1003F000252F30E0842F90E0821B930B541710F0D0
:10040000CF96089501970895FC01918D828D9817DC
:1004100061F0A28DAE0FBF2FB11D5D968C91928DB4
:100420009F5F9F73928F90E008958FEF9FEF0895E5
:10043000FC01918D828D981731F0828DE80FF11DAE
:10044000858D90E008958FEF9FEF0895FC01918DC9
:10045000228D892F90E0805C9F4F821B91098F73C2
:100460009927089581ED93E00E94260221E0892BCF
:1004700009F420E0822F0895FC01A48DA80FB92F64
:10048000B11DA35ABF4F2C91848D90E001968F73BC
:100490009927848FA689B7892C93A089B1898C91DB
:1004A000837080648C93938D848D981306C002882A
:1004B000F389E02D80818F7D80830895EF92FF92F4
:1004C0000F931F93CF93DF93EC0181E0888F9B8D77
:1004D0008C8D98131AC0E889F989808185FF15C031
:1004E0009FB7F894EE89FF896083E889F989808154
:1004F0008370806480839FBF81E090E0DF91CF9123
:100500001F910F91FF90EF900895F62E0B8D10E044
:100510000F5F1F4F0F731127E02E8C8D8E110CC0B3
:100520000FB607FCFACFE889F989808185FFF5CFFE
:10053000CE010E943C02F1CFEB8DEC0FFD2FF11D9F
:10054000E35AFF4FF0829FB7F8940B8FEA89FB893B
:1005500080818062CFCFCF93DF93EC01888D882399
:10056000B9F0AA89BB89E889F9898C9185FD03C016
:10057000808186FD0DC00FB607FCF7CF8C9185FFFB
:10058000F2CF808185FFEDCFCE010E943C02E9CF02
:10059000DF91CF91089580E090E0892B29F00E94AF
:1005A000320281110E94000080E090E0892B49F026
:1005B00080E090E0892B29F00E94000081110E94C8
:1005C000000080E090E0892B49F080E090E0892BEA
:1005D00029F00E94000081110E94000080E090E05C
:1005E000892B49F080E090E0892B29F00E940000DF
:1005F00081110C9400000895282F30E0F901EA568B
:10060000FE4F9491F901EA5AFD4F4491205F3D4F0E
:10061000F9012491222309F435C0992311F1915055
:100620009231F8F4E92FF0E08827E65EFC4F8F4F17
:100630000C94B61A4B034F032C03430347033103B7
:10064000520358035C03620366036A037003740376
:10065000310378037E038203809180008F7780933B
:100660008000E22FF0E0EE0FFF1FE458FE4FA5914F
:10067000B4918FB7F894EC91611148C040954E2326
:100680004C938FBF0895809180008F7DE8CF80913B
:100690008000877FE4CF84B58F7784BDE2CF84B5B7
:1006A0008F7DFBCF8091B0008F778093B000D9CF42
:1006B0008091B0008F7DF9CF809190008F778093EB
:1006C0009000CFCF809190008F7DF9CF80919000E6
:1006D000877FF5CF8091A0008F778093A000C1CF56
:1006E0008091A0008F7DF9CF8091A000877FF5CF0A
:1006F000809120018F7780932001B3CF80912001DA
:100700008F7DF9CF80912001877FF5CF4E2BB8CF19
:10071000CF93DF9390E0FC01EA5AFD4F2491805F74
:100720009D4FFC0184918823C9F090E0880F991FA8
:10073000FC01E452FE4FA591B491FC01E458FE4F38
:10074000C591D49161110DC09FB7F8948C912095FB
:1007500082238C938881282328839FBFDF91CF91A8
:100760000895623051F49FB7F8943C91822F8095A0
:1007700083238C93E8812E2BEFCF8FB7F894EC91E5
:100780002E2B2C938FBFEACF3FB7F8948091420372
:1007900090914303A0914403B091450326B5A89BD3
:1007A00005C02F3F19F00196A11DB11D3FBFBA2F03
:1007B000A92F982F8827BC01CD01620F711D811DC3
:1007C000911D42E0660F771F881F991F4A95D1F748
:1007D00008958F929F92AF92BF92CF92DF92EF9245
:1007E000FF924B015C010E94C4036B017C010E94DB
:1007F000C4036C197D098E099F09683E7340810509
:100800009105A8F321E0821A9108A108B10888EEA9
:10081000C80E83E0D81EE11CF11C81149104A104D0
:10082000B10429F7FF90EF90DF90CF90BF90AF9089
:100830009F908F900895CF92DF92EF92FF920F9347
:100840001F93CF93DF93CDB7DEB7C054D1400FB61F
:10085000F894DEBF0FBECDBF2FB7F8948091CD03C3
:100860009091CE03A091CF03B091D0032FBF4091C0
:1008700083045091840460918504709186048C01F6
:100880009D01041B150B260B370BB901A801403D38
:1008900057406105710590F480918B04C05CDE4F78
:1008A0000FB6F894DEBF0FBECDBFDF91CF911F9181
:1008B0000F91FF90EF90DF90CF9008958093830485
:1008C00090938404A0938504B093860410927E04D0
:1008D00010927D0410927C0410927B0410927A0492
:1008E00062E080917F040E94880361E070E080E014
:1008F00090E00E94E90361E080917F040E948803F8
:1009000060E080917F040E94FC0280918004855108
:100910008230E0F48BE291E10197F1F762E080919F
:100920007F040E94880380918C0490E00E94BB01A8
:10093000F89480E00E9483016F3F7F4F8F4F9F4F5D
:1009400061F410928B04789480E0A8CF64E170E0A9
:1009500080E090E00E94E903E1CF81E00E94830102
:100960006F3F7F4F8F4F9F4F61F38E010F5F1F4F80
:100970006E018FEBC81A8EEFD80A780180E00E94D2
:100980008301F701608371838283938381E00E94F6
:100990008301F7016483758386839783F8E0EF0E04
:1009A000F11CEC14FD0451F7789430E020E0F801DC
:1009B000C080D180E280F380448155816681778157
:1009C000FFEFCF16DF06EF06FF0631F04F3F8FEF48
:1009D00058076807780719F410928B04B5CFF9010E
:1009E00083E0F595E7958A95E1F7E658FB4F80811E
:1009F000880FC416D506E606F70610F180832F5F30
:100A00003F4F085F1F4F2832310589F640917E0421
:100A100020917A0480917B04280F3327331F809123
:100A20007C04280F311D80917D04820F932F911D2E
:100A300099274817190681F681E080938B042ECF01
:100A40008160DCCF8FB7F894809140038FBF089509
:100A5000AF92BF92CF92DF92EF92FF920F931F93CC
:100A6000CF93DF93EC0188819981892B89F06EBD4A
:100A70000DB407FEFDCFBEB48B2DDF91CF911F913A
:100A80000F91FF90EF90DF90CF90BF90AF900895BF
:100A90008885998511E0892B09F010E8AA24A39490
:100AA000862F812309F0A12C062F2C813D814E81B8
:100AB0005F8160E271EA87E090E00E94751AF22E91
:100AC000B02EE12CC22ED12CFF2019F0C6010E94BD
:100AD000BB018A85877F09F042C08D858F3F89F0F1
:100AE000902F912381E009F480E08A1551F0EF8581
:100AF000F8898F89992369F19081892B8083AA24B1
:100B0000A394E989FA898081998D892B8083FF20BC
:100B100019F0C6010E94BB018E858F3F39F0EB8929
:100B2000FC898081988D892309F0E12AE989FA8975
:100B30009081898D8095892380838E858F3F09F0F0
:100B4000BE2C88859985892BB9F5110F1111BCCF61
:100B500093CF9081809589238083A12CD2CFE9897E
:100B6000FA898081998D892B8083FF2019F0C60135
:100B70000E94BB018D858F3F49F0EF85F8898F89F1
:100B8000902F9123A9F09081892B8083E989FA899C
:100B90009081898D8095892380838E858F3F69F22E
:100BA000EB89FC898081988D892339F2E12AC5CFB0
:100BB000908180958923E9CF1695C8CF8CBD9DBDC6
:100BC0000895CF92DF92EF92FF920F931F93CF93EE
:100BD000DF93EC018B016A01790188819981892B6E
:100BE00031F0EA81FB81808191810E94DE0560E025
:100BF0008B850E94FC02F8016081CE010E942805CD
:100C00008601EC0CFD1C6FEFCE010E942805F80157
:100C100081938F01EE15FF05B1F761E08B850E948E
:100C2000FC0281E0DF91CF911F910F91FF90EF9037
:100C3000DF90CF90089520911D03260F3327331F97
:100C400021323105ECF42091A303FC0190E080E017
:100C5000243069F082E00895A0911D032191AC0138
:100C600043505D4FA40FB52FB11D2C9301968617ED
:100C700098F380911D03680F60931D0380E0089531
:100C800081E008951092A30381E08093A203109263
:100C90007D0361E084E10E94FC0261E085E10E9445
:100CA000FC02E9EBF0E080818E7F808380818D7F84
:100CB000808388E48093B80085E48093BC00089525
:100CC00010925C0310925B031092AA031092CC0363
:100CD0000E94420686EC91E090935A038093590358
:100CE00087EC91E090935803809357030895CF9336
:100CF000DF9391E09093FC028823B9F0C091B80093
:100D0000D091BA008091BC008A7B8093BC0060E0E7
:100D100084E10E94FC0260E085E10E94FC020E94E6
:100D20004206D093BA00C093B800DF91CF910895E6
:100D30008F929F92AF92BF92CF92DF92EF92FF92EB
:100D40000F931F93CF93DF93D091CC03D13208F050
:100D5000D7C0182FC091CB030E94C4036B017C0144
:100D60008091A30381116BC082E08093A303109351
:100D7000A2038FEF8093A1031092A003D0939F034F
:100D8000ABEAB3E0EFE7F3E080E0D81391C0109254
:100D90007E0380917E03CC0FC82BC0937E0380918D
:100DA0007D03813009F088C010927D030E94C40346
:100DB0006B017C0180917E038093BB008091A50331
:100DC0009091A603A091A703B091A803892B8A2B29
:100DD0008B2BA1F00E94C4030091A5031091A603E0
:100DE0002091A7033091A8036C197D098E099F09F2
:100DF000061717072807390708F442C08091BC007E
:100E000083FDD8CF85EC8093BC000E94C4036B01A6
:100E10007C018091A303823009F450C08091A1032A
:100E20008F3F09F46FC08091A103803209F46CC038
:100E30008091A103803309F469C084E026C08091C9
:100E4000A5039091A603A091A703B091A803892BB5
:100E50008A2B8B2B09F484CF0E94C4038090A503B6
:100E60009090A603A090A703B090A8036C197D09E9
:100E70008E099F0986169706A806B90608F070CF56
:100E80008091A4030E94770685E01092AA03109235
:100E9000CC031092A903DF91CF911F910F91FF9086
:100EA000EF90DF90CF90BF90AF909F908F9008957C
:100EB0009D9191938F5F69CF85EEA5CF8091A5031A
:100EC0009091A603A091A703B091A803892B8A2B28
:100ED0008B2B09F49ECF0E94C4030091A5031091AF
:100EE000A6032091A7033091A8036C197D098E09F0
:100EF0009F09061717072807390708F08ACFC0CFC0
:100F000081E0C3CF80E0C1CF82E0BFCF83E0BDCF1F
:100F10001F93CF93DF93EA01122FDC0111968D917D
:100F20009C91DC01ED91FC910280F381E02D1995FB
:100F3000C817D90729F4812F0E94980691E08111E2
:100F400090E0892FDF91CF911F910895CF93DF9388
:100F5000EC018B818823A1F0888191E09093A90313
:100F60008093CB031092AA031092CC0381E00E94DD
:100F7000980691E0811190E0892FDF91CF9108953B
:100F80000E94600681E08B83CE010E94A607982F05
:100F90008111E2CFF1CF0895E0915C0380915B0372
:100FA000E81730F4F0E0E35AFC4F808190E00895B8
:100FB0008FEF9FEF089590915C0380915B032FEF7B
:100FC0003FEF981748F4E92FF0E0E35AFC4F2081F7
:100FD00030E09F5F90935C03C901089580915B03AB
:100FE00090915C03891B990B0895CF92DF92EF9249
:100FF000FF920F931F93CF93DF937C01CB018A0164
:101000002091A903222389F0EB016B01C40ED51EA8
:10101000CC15DD0569F06991D701ED91FC91019046
:10102000F081E02DC7011995F3CF642F0E941B06B4
:10103000C801DF91CF911F910F91FF90EF90DF904A
:10104000CF900895CF93DF931F92CDB7DEB769831A
:101050002091A9032223F9F02091CC03203258F0EB
:1010600021E030E0FC013383228390E080E00F90A8
:10107000DF91CF9108958091AA03E82FF0E0E55524
:10108000FC4F998190838F5F8093AA038093CC0358
:1010900081E090E0ECCF61E0CE0101960E941B065A
:1010A000F7CFFC01248131E03093A9032093CB03D7
:1010B0001092AA031092CC038485682B8EE694E0EC
:1010C0000E94220881E00C949806089590E080E048
:1010D00008950F931F93CF93DF931F921F92CDB765
:1010E000DEB76A83E0918D04F0918E043097F9F0B9
:1010F000898384819581029798F0808191E0909313
:10110000A9038093CB031092AA031092CC0321E091
:1011100042E050E0BE016F5F7F4FCF010E94880721
:101120000F900F90DF91CF911F910F9108958F77BE
:10113000898300918F0410919004D8018D919C9126
:101140001197892B39F01296ED91FC918081918154
:101150000E94DE0560E0F80183850E94FC0269813F
:10116000C8010E9428056A81C8010E94280561E023
:10117000D8011B968C910E94FC02D2CF4F925F92B5
:101180006F927F92BF92CF92DF92EF92FF920F9376
:101190001F93CF93DF93DC011496ED91FC9115978B
:1011A000EF2B09F407C1E901C52EB42E8C01FC0117
:1011B000808191E09093A9038093CB031092AA03BE
:1011C0001092CC0320E041E050E0CD010E9488075E
:1011D000D82E882309F4EEC0D80114968D919C91E5
:1011E00015978C179D0708F4E5C0EC900E94C40386
:1011F0002B013C018091A303811167C0FC2E81E08B
:101200008093A3038093A2039FEF9093A103109276
:10121000A0039C2F915090939F0380937E03809115
:101220007E03EE0CE82AE0927E0380917D038130FC
:1012300009F09CC010927D030E94C4032B013C0165
:1012400080917E038093BB008091A5039091A603BB
:10125000A091A703B091A803892B8A2B8B2BA1F017
:101260000E94C4032091A5033091A6034091A703D7
:101270005091A8036419750986099709261737073D
:101280004807590708F442C08091BC0083FDD8CFBD
:1012900085EC8093BC000E94C4032B013C0180912B
:1012A000A303813009F464C08091A0038F1510F46A
:1012B000F090A003AFE7B3E0EDE5F3E080E08F1539
:1012C00051F19D9191938F5FFACF8091A5039091F9
:1012D000A603A091A703B091A803892B8A2B8B2B7F
:1012E00009F488CF0E94C4032091A5033091A6037E
:1012F0004091A7035091A8036419750986099709BD
:10130000261737074807590708F074CF8091A403C0
:101310000E947706F12C10925C03F0925B03FC169E
:101320001D0609F047C0EB2CFC2CCE0DDF1DF8018B
:1013300081819281DC01ED91FC910284F385E02DA5
:101340001995F70181937F01CE17DF0781F78D2D66
:10135000DF91CF911F910F91FF90EF90DF90CF9091
:10136000BF907F906F905F904F90089585EE91CFE2
:101370008091A5039091A603A091A703B091A80323
:10138000892B8A2B8B2B09F48ACF0E94C4032091CE
:10139000A5033091A6034091A7035091A8036419B7
:1013A000750986099709261737074807590708F06E
:1013B00076CFACCFD12CCBCFCF93DF9300D0CDB7AE
:1013C000DEB7E0918D04F0918E04898323E030E054
:1013D000AE014F5F5F4FBA013097A9F0CF010E9475
:1013E000BE0829816A8170E090E080E0982F872F05
:1013F000762F6627822B2B81622B0F900F900F90F8
:10140000DF91CF91089580918F04909190040E9474
:10141000E105E7CF4F925F926F927F928F929F92FA
:10142000AF92BF92CF92DF92EF92FF928AEF0E942B
:10143000DC096115710520E88207910509F49BC05C
:101440006B017C0184E0F594E794D794C7948A9566
:10145000D1F74090A4045090A504C701B60128E03C
:1014600030E040E050E00E94971A712C612CD301CB
:10147000C201880F991FAA1FBB1F281B390B4A0BDB
:101480005B0BA091A604B091A7040E94C91A4B015E
:101490005C01C701B60120E130E040E050E00E946D
:1014A000971ACA01B90164197509860997099B0140
:1014B000AC010E94651A9B01AC017CE055954795F3
:1014C000379527957A95D1F7A091A804B091A904F2
:1014D0000E94C91A2B013C01C501B40120E038E08B
:1014E00040E050E00E94971A69017A01C301B201FD
:1014F00020E030E440E050E00E94971A2C0D3D1DA2
:101500004E1D5F1D8091A0049091A104A091A204A2
:10151000B091A304280F391F4A1F5B1F20939C041E
:1015200030939D0440939E0450939F04A5E0B0E047
:101530000E94BE1A60587F4F8F4F9F4F20E031E0CE
:1015400040E050E00E94971ACA01B9010E94F018C9
:1015500020E030E048EC52E40E944718FF90EF9002
:10156000DF90CF90BF90AF909F908F907F906F90C3
:101570005F904F90089560E070E080EC9FE7EECFC1
:101580002F923F924F925F926F927F928F929F9293
:10159000AF92BF92CF92DF92EF92FF920F931F9381
:1015A000CF93DF93CDB7DEB76B970FB6F894DEBF5E
:1015B0000FBECDBF0E940A0A87EF0E94DC096E8B26
:1015C0007F8B888F998F611571058048910509F48B
:1015D000AEC280919C0490919D04A0919E04B09114
:1015E0009F046C017D01FF0CCC08DC2C76019C0172
:1015F000AD016C2D7C2D8C2D9C2D345F414051090B
:10160000610971098109910929833A834B835C83BC
:101610006D837E838F87992E59016A017B01082F84
:10162000192F0E94D11A2B8F832E742E652E462ED1
:10163000272E888B998B3091AD042091AC04932F89
:10164000990F990B492F592F692F792F892F0E94B4
:10165000D11A0CE00E94001C2A8F3F83542E352E95
:101660006A8B7B8B8C8B9D8B3091AF042091AE0469
:10167000932F990F990BAB8CB82CC72CD62CE42C3C
:10168000F22C08891989492F592F692F792F892F11
:101690000E94D11AF22E032F142FB52FF62FE72F09
:1016A000D82EE92EA0E00E94481C84F421503F4F20
:1016B0004F4F5F4F6F4F7F4F8F4F9F4FF22E032F34
:1016C000142FB52FF62FE72FD82EE92E2F2D302FE0
:1016D000412F5B2F6F2F7E2F8D2D9E2D08E00E94B6
:1016E000191CAA8CBF80C52CD32CEA88FB880C89D6
:1016F0001D890E94361C70588F4F9F4FE091AA049D
:10170000F091AB045F01D12CC12CE12CF12C8701AD
:10171000EF83B886C986DA86EB86FC860D871E873E
:10172000C12CD12CE12CF12C00E010E00E94D11A48
:1017300089014F83B52FF62FE72F7C01A0E00E948F
:10174000481C74F421503109410951096E4F7F4FF3
:101750008F4F9F4F89014F83B52FF62FE72F7C01C5
:1017600098014F815B2F6F2F7E2FC70101E20E94EE
:10177000191C2A8F532E4F835A8B6B8B7C8B8D8B2E
:10178000392EA0E00E94481C09F4D6C13091B5045E
:101790002091B404932F990F990BAB8CB82CC72CC4
:1017A000D62CE42CF22C08891989492F592F692F3E
:1017B000792F892F0E94D11A222E388B442E652E24
:1017C000762E872E898B9B8F3091B3042091B204A3
:1017D000932F990F990BA980BA80CB80DC80ED8084
:1017E000FE800F85192D492F592F692F792F892FA9
:1017F0000E94D11A01E10E94001CA22CB888C42CBE
:10180000D62CE72CF82C09891B8D0E94361C590117
:101810006A017B01482E192F4E895F89688D798D69
:1018200034E075956795579547953A95D1F780E0DF
:1018300090E0A0E1B0E0841B950BA60BB70B3C0138
:101840004D01990C6608762C43019C01AD01662D73
:10185000762D862D962D0FE10E94001C722E832E70
:10186000942E5983B62FA72FF82FE92F3091B1046A
:101870002091B004932F990F990B492F592F692F5D
:10188000792F892F03E20E94001C042D0E94361C30
:1018900059016A017B018C01272D382D492D598171
:1018A0006B2F7A2F8F2F9E2F0E943F1CE5E3AE2EC9
:1018B000FCE0BF2EC12CD12CE12CF12C00E010E07B
:1018C0000E94D11AAA8CB52CCF80DA88EB88FC88CC
:1018D0000D89132D0E942B1B2F873F832A013B016B
:1018E0004C01F22E032F142FB52DF62FE72DD82EF5
:1018F000E92CA0E00E94481C84F42150304E4F4F48
:101900005F4F6F4F7F4F8F4F9F4FF22E032F142F3C
:10191000B52FF62FE72FD82EE92E2F2D302F412F60
:101920005B2F6F2F7E2F8D2D9E2D0DE00E94191C99
:1019300029833A834B835C836D837E83382E292EE3
:101940003091BB042091BA04932F990F990BA98071
:10195000BA806A017B01032D122D492F592F692F5F
:10196000792F892F0E94D11A0E94D11AF22E032FAB
:10197000142FB52FF62FE72FD82EE92EA0E00E94C6
:10198000481C84F42150310941095E4F6F4F7F4F4D
:101990008F4F9F4FF22E032F142FB52FF62FE72FC7
:1019A000D82EE92E2F2D302F412F5B2F6F2F7E2F1A
:1019B0008D2D9E2D09E10E94191CAF84BF8062010C
:1019C000730184010E94361C190149835A836B8379
:1019D0007C838D839E833091B9042091B804932F2A
:1019E000990F990B492F592F692F792F892F0E9411
:1019F000D11A122F3F874F83B52FF62FE72FF82EDE
:101A0000092FA0E00E94481C84F421503109484F5E
:101A10005F4F6F4F7F4F8F4F9F4F122F3F874F83E7
:101A2000B52FF62FE72FF82E092F212F3F854F8155
:101A30005B2F6F2F7E2F8F2D902F03E10E94191C9B
:101A400059016A017B018C01910149815A816B81A5
:101A50007C818D819E810E94361C122F3A8349839E
:101A6000B52FF62FE72FF82E092FA0E00E94481C73
:101A700084F421503F4F4F4F5F4F6F4F7F4F8F4F39
:101A80009F4F122F3A834983B52FF62FE72FF82E59
:101A9000092F212F3A8149815B2F6F2F7E2F8F2DA8
:101AA000902F08E00E94191C2983F32F6A017B0103
:101AB000E82F192F8091B6049091B704092E000CDD
:101AC000AA0BBB0B4C015D01BB0C8808982C540180
:101AD0009C01AD01682D782D882D982D04E00E9481
:101AE000001CA980BF2E0E2F0E94361C0E94E818F1
:101AF00020E030E040E85BE30E94F3196B960FB6FC
:101B0000F894DEBF0FBECDBFDF91CF911F910F9133
:101B1000FF90EF90DF90CF90BF90AF909F908F900D
:101B20007F906F905F904F903F902F90089560E06E
:101B300070E080EC9FE7E2CF60E070E0CB01DECFA9
:101B4000CF93DF931F921F92CDB7DEB7E0918D0444
:101B5000F0918E04898322E030E0AE014F5F5F4F49
:101B6000BA01309769F0CF010E94BE0889819A813D
:101B70009827892798270F900F90DF91CF9108958C
:101B800080918F04909190040E94E105EFCF0E9414
:101B9000A00D9827892798270895CF93DF931F9248
:101BA000CDB7DEB7E0918D04F0918E04898321E0FA
:101BB00030E0AE014F5F5F4FBA01309741F0CF0187
:101BC0000E94BE0889810F90DF91CF910895809186
:101BD0008F04909190040E94E105F4CF0F931F931E
:101BE000CF938C01C62F0E9451086C2F6460C801EE
:101BF0000E9451086C2F6B7FC8010E94510883EC32
:101C000090E00197F1F7CF911F910F9108950F93F5
:101C10001F93CF93DF938C01D62FC42F607F642B4B
:101C20000E94EE0D80E1D89FB00111246C2BC801F9
:101C3000DF91CF911F910F910C94EE0D41E00E9426
:101C4000070E81E090E0089541E0682F88EC94E071
:101C50000E94070E81E090E00895CF93DF9300D0BB
:101C600000D01F921F92CDB7DEB798E0EEE2F2E00F
:101C7000DE01119601900D929A95E1F79091D004B2
:101C8000961710F46FEF690F262F30E0220F331FE5
:101C900041E050E04C0F5D1F240F351FF9016081BA
:101CA000680F606840E088EC94E028960FB6F894DE
:101CB000DEBF0FBECDBFDF91CF910C94070E40E089
:101CC00061E088EC94E00E94070E8BE39FE10197AE
:101CD000F1F78091D104882321F060E080E00C943A
:101CE0002D0E08950F931F93CF93DF938B0198E0F0
:101CF000899FB0011124606440E088EC94E00E9468
:101D0000070EE801085F1F4F699188EC94E00E947C
:101D10001E0EC017D107C1F7DF91CF911F910F9110
:101D20000895CF93DF93823028F09091CD0498608E
:101D30009093CD048093D00462E370E080E090E063
:101D40000E94E9036091D40488EC94E00E94510859
:101D500068EE73E080E090E00E94E90360E388ECC5
:101D600094E00E94EE0DCBE4D6E4CE010197F1F7AA
:101D700060E388EC94E00E94EE0D2197F1F760E3B8
:101D800088EC94E00E94EE0D83E592E00197F1F774
:101D900060E288EC94E00E94EE0D6091CD046062F8
:101DA00040E088EC94E00E94070E84E08093CE042B
:101DB00040E06CE088EC94E00E94070E0E945F0E09
:101DC00082E08093CF0440E066E088EC94E00E94DB
:101DD000070E40E062E088EC94E00E94070E8BE37F
:101DE0009FE10197F1F7DF91CF910895FB010190F9
:101DF0000020E9F73197AF01461B570BDC01ED914D
:101E0000FC910280F381E02D19948F929F92AF9202
:101E1000BF920F931F93CF93DF93CDB7DEB7A197F8
:101E20000FB6F894DEBF0FBECDBF19A2423008F442
:101E30004AE08E010F5D1F4F842E912CB12CA12CF6
:101E4000A50194010E94751AE62FB901CA01EA3072
:101E500004F5E05DD801EE938D01232B242B252B77
:101E600079F790E080E0109729F0BD0188EC94E0CC
:101E70000E94F60EA1960FB6F894DEBF0FBECDBF3E
:101E8000DF91CF911F910F91BF90AF909F908F9056
:101E90000895E95CDFCFBC0188EC94E00C94F60E69
:101EA0004F925F926F927F928F929F92AF92BF926A
:101EB000CF92DF92EF92FF920F931F93CF936B011C
:101EC0007C01742EAC019B010E94601A66E672E0F0
:101ED000811126C046015701E894B7F82FEF3FEF74
:101EE0004FE75FE7C501B4010E94601A81110CC081
:101EF0002FEF3FEF4FE75FE7C501B4010E944218A3
:101F00006AE672E0181664F02FEF3FEF4FE75FE4E8
:101F1000C701B6010E94EE191816ACF46EE672E025
:101F200088EC94E0CF911F910F91FF90EF90DF909C
:101F3000CF90BF90AF909F908F907F906F905F9069
:101F40004F900C94F60E2FEF3FEF4FE75FECC70179
:101F5000B6010E94421887FDE1CF20E030E0A901E0
:101F6000C701B6010E94421810E000E087FF08C0D8
:101F70008DE20E94240E8C01F7FAF094F7F8F094A9
:101F8000C0E060E070E080E09FE37C1641F020E07C
:101F900030E040E251E40E944718CF5FF6CFA7013E
:101FA00096010E94D6172B013C010E94B9184B01E3
:101FB0005C014AE00E94050F7C01E00EF11ECC237B
:101FC000B1F1C501B4010E94EE189B01AC01C3013F
:101FD000B2010E94D5174B015C018EE20E94240ED3
:101FE000E80EF91EC15018F120E030E040E251E463
:101FF000C501B4010E94F3192B013C010E94B918DC
:102000004B01B12CA12C4AE0C501B4010E94050F7F
:10201000E80EF91EC501B4010E94EE189B01AC0147
:10202000C301B2010E94D5174B015C01DBCFC70190
:10203000CF911F910F91FF90EF90DF90CF90BF90C5
:10204000AF909F908F907F906F905F904F9008958A
:1020500085ED8093BC008091A5039091A603A0918B
:10206000A703B091A8030796A11DB11D23E0B69563
:10207000A795979587952A95D1F72091BC0024FDC7
:1020800003C01092A30308954091A5035091A603A5
:102090006091A7037091A803452B462B472B69F34A
:1020A0000097A105B10541F02AE22A95F1F700C099
:1020B0000197A109B109E1CF8091A4030C9477069F
:1020C0001F920F920FB60F9211240BB60F922F93FF
:1020D0003F934F935F936F937F938F939F93AF93B0
:1020E000BF93EF93FF9381ED93E00E943C02FF9139
:1020F000EF91BF91AF919F918F917F916F915F9180
:102100004F913F912F910F900BBE0F900FBE0F90EC
:102110001F9018951F920F920FB60F9211240BB6B5
:102120000F922F938F939F93EF93FF93E091E1038F
:10213000F091E2038081E091E703F091E80382FDF2
:102140001DC090818091EA038F5F8F732091EB0314
:10215000821741F0E091EA03F0E0EF52FC4F958FD7
:102160008093EA03FF91EF919F918F912F910F90B0
:102170000BBE0F900FBE0F901F9018958081F2CF6D
:102180001F920F920FB60F9211242F933F938F93AC
:102190009F93AF93BF938091CD039091CE03A09175
:1021A000CF03B091D0033091410323E0230F2D37AB
:1021B00058F50196A11DB11D209341038093CD03D5
:1021C0009093CE03A093CF03B093D00380914203AA
:1021D00090914303A0914403B09145030196A11D42
:1021E000B11D8093420390934303A0934403B093A3
:1021F0004503BF91AF919F918F913F912F910F9088
:102200000FBE0F901F90189526E8230F0296A11D70
:10221000B11DD2CF1F920F920FB60F9211240BB6A1
:102220000F922F933F934F935F936F937F938F936F
:102230009F93AF93BF93EF93FF938091B900887FF3
:10224000803609F44DC008F040C0883209F4A9C0B6
:1022500028F5803109F49DC0C8F4882309F4FBC037
:10226000883009F496C0FF91EF91BF91AF919F9193
:102270008F917F916F915F914F913F912F910F902F
:102280000BBE0F900FBE0F901F901895883109F468
:1022900088C0803241F78093A10314C0803409F4D0
:1022A0009DC040F48033B9F38833E9F68093A103ED
:1022B00085ECB0C0803509F485C0883509F496C036
:1022C000883489F60E942810CECF883909F48CC052
:1022D00038F5883729F050F4883611F0803719F630
:1022E00083E08093A30310923F0357C0883809F41A
:1022F0007BC0803919F0803809F0B5CF80913F0359
:10230000803208F071C0E0913F0381E08E0F80932E
:102310003F038091BB00F0E0E15EFC4F80833DC055
:10232000803B39F0E0F4803A09F479C0883A09F04A
:102330009ACF84E08093A30310921E0310921D0392
:10234000E0915903F0915A03199580911D03811171
:102350000FC081E080931D031092FD0209C0803CF4
:1023600009F4A6CF883C09F4A3CF883B09F07BCFC2
:10237000E0911E0381E08E0F80931E03F0E0E35096
:10238000FD4F80818093BB0090911E0380911D03BF
:1023900029C080917E038093BB0085EC8093BC00B4
:1023A00062CF9091A00380919F03981758F5E09118
:1023B000A00381E08E0F8093A003F0E0E158FC4F72
:1023C0008081E9CFE091A00381E08E0F8093A0038C
:1023D0008091BB00F0E0E158FC4F80839091A00316
:1023E00080919F039817C8F285E8D8CFE091A003A9
:1023F00081E08E0F8093A0038091BB00F0E0E15854
:10240000FC4F80838091A20381115CCF81E0809397
:102410007D0384EA8093BC001092A30324CF85EC53
:102420008093BC001092A30380913F03803230F46C
:10243000E0913F03F0E0E15EFC4F108260913F03CA
:1024400070E0E0915703F09158038FE193E0199504
:1024500010923F0308CF1092A10334CFE1EDF3E0D7
:102460001382128288EE93E0A0E0B0E0848395832B
:10247000A683B7832AE332E03183208325EC30E062
:102480003587248724EC30E03787268720EC30E03E
:10249000318B208B21EC30E0338B228B22EC30E02F
:1024A000358B248B26EC30E0378B268B118E128EE9
:1024B000138E148EEEE6F4E01382128284839583E9
:1024C000A683B7838CE492E091838083E8ECF4E008
:1024D000138212828EE592E091838083118687E2D7
:1024E000848384E1828784E083871486EDE8F4E0C6
:1024F0001182108213821282158214821782168230
:1025000011861086138A148A158A168AAAE7B4E0FF
:102510008FE315968C93159786E116968C931697F4
:10252000E5E9F2E0E4911796EC931797EFE4F2E017
:10253000E4911896EC93189740E85EE360E070E051
:102540001D964D935D936D937C9350970895789469
:1025500084B5826084BD84B5816084BD85B58260A8
:1025600085BD85B5816085BD80916E008160809359
:102570006E001092810080918100826080938100C2
:1025800080918100816080938100809180008160D2
:10259000809380008091B10084608093B10080912D
:1025A000B00081608093B000809191008260809340
:1025B00091008091910081608093910080919000C2
:1025C0008160809390008091A10082608093A1003F
:1025D0008091A10081608093A1008091A000816022
:1025E0008093A000809121018260809321018091DD
:1025F000210181608093210180912001816080937D
:10260000200180917A00846080937A0080917A0022
:10261000826080937A0080917A00816080937A0052
:1026200080917A00806880937A001092C10084E0E3
:102630000E94910E0E9460061092CD048091D304F6
:102640000E94910EE091E103F091E20382E0808329
:10265000E091DD03F091DE031082E091DF03F09161
:10266000E00380E180831092E903E091E503F091BB
:10267000E60386E08083E091E303F091E403808148
:1026800080618083E091E303F091E40380818860BE
:102690008083E091E303F091E4038081806880838C
:1026A000E091E303F091E40380818F7D808362E019
:1026B00080917F040E9488032FB7F8948091CD0306
:1026C0009091CE03A091CF03B091D0032FBF805D36
:1026D0009740A109B1098093830490938404A09347
:1026E0008504B093860487E380938C040E9460067F
:1026F00060E088E30E94880360E087E30E9488032B
:1027000060E086E30E94880360E089E30E9488031A
:1027100060E08AE30E94880360E08BE30E94880304
:1027200060E08CE30E94880360E08DE30E948803F0
:1027300062E08DE10E94880362E08BE10E948803E1
:1027400062E089E10E94880362E087E10E948803D9
:1027500061E082E00E94880361E083E00E948803D8
:1027600061E084E00E94880361E085E00E948803C4
:1027700061E086E00E94880361E087E00E948803B0
:1027800061E088E00E94880361E089E00E9488039C
:10279000C0918F04D0919004209791F580918D0481
:1027A00090918E04009711F00E94FF1C86E090E04B
:1027B0000E94631CEC0186E788838EE694E09A838E
:1027C00089831B8280E290E09D838C83D0938E046A
:1027D000C0938D040E94600681E08B83CE010E942D
:1027E000A60781114FC064EA72E081ED93E00E9478
:1027F000F60E68ED72E081ED93E00E94F60EFFCFD9
:1028000061E08B850E94880361E08B850E94FC0259
:1028100088819981892B09F4FBC11FB7F8948091B5
:102820004603811127C0E5E4F2E08491EBE8F2E091
:102830009491E82FF0E0EE0FFF1FE452FE4FA591B8
:10284000B491EC91E92321F461E085E30E94FC025C
:1028500061E085E30E9488038CB580618CBD8CB5F6
:1028600080648CBD61E084E30E94880361E083E3BF
:102870000E948803809146038F5F809346031FBFA9
:1028800081E08B8F80ED0E94CD0D90E0B0E0A0E064
:102890008093980490939904A0939A04B0939B0416
:1028A00080369105A105B10509F09DCF66EB80EE5C
:1028B0000E9469086AE070E080E090E00E94E9030D
:1028C00083EF0E94CD0D80FDF5CF88E80E94C70DF3
:1028D0009093A5048093A4048AE80E94C70D909366
:1028E000A7048093A6048CE80E94C70D9093A904C6
:1028F0008093A8048EE80E94C70D9093AB04809348
:10290000AA0480E90E94C70D9093AD048093AC04A3
:1029100082E90E94C70D9093AF048093AE0484E9CE
:102920000E94C70D9093B1048093B00486E90E9481
:10293000C70D9093B3048093B20488E90E94C70D39
:102940009093B5048093B4048AE90E94C70D9093D4
:10295000B7048093B6048CE90E94C70D9093B90424
:102960008093B8048EE90E94C70D9093BB048093B6
:10297000BA0481EA0E94CD0D8093BC0481EE0E94CE
:10298000C70D9093BE048093BD0483EE0E94CD0DCD
:102990008093BF0484EE0E94CD0DC82F85EE0E9467
:1029A000CD0D90E1C902900111248F70282B309336
:1029B000C1042093C00486EE0E94CD0DC82F85EE81
:1029C0000E94CD0D90E1C902E001112490E024E0C5
:1029D000959587952A95E1F78C2B9D2B9093C304B1
:1029E0008093C20487EE0E94CD0D8093C4048DEEC7
:1029F0008093C6048091C7048F71806A8093C70456
:102A00008091C504807C8F778093C50460E084EF5B
:102A10000E9469086091C70462956695677082EFAD
:102A20000E9469088091C504682F677090E2699FD1
:102A3000B0011124282F269526952695277094E01D
:102A4000299F90011124622B87FB882780F9682B2E
:102A500085EF0E9469088091C604682F677090E234
:102A6000699FB0011124282F269526952695277059
:102A700094E0299F90011124622B8295869586957A
:102A80008370682B84EF0E94690864E670E080E040
:102A900090E00E94E90388E08093D40460E088EC31
:102AA00094E00E9451080E945F0E61E082E00E9463
:102AB0002D0E82E792E00E944B0F62E083E00E94BD
:102AC0002D0E82E892E00E944B0F60E272E080E0FF
:102AD0000E94720E68E172E081E00E94720E60E175
:102AE00072E082E00E94720E68E072E083E00E9471
:102AF000720E60E072E084E00E94720E60E081E09D
:102B00000E942D0E81E992E00E944B0F63E081E06C
:102B10000E942D0E81E992E00E944B0F61E080E05F
:102B20000E942D0E60E088EC94E00E941E0E62E090
:102B300080E00E942D0E60E088EC94E00E941E0E62
:102B400061E083E10E942D0E60E088EC94E00E9439
:102B50001E0E62E083E10E942D0E60E088EC94E09E
:102B60000E941E0E60E080E00E942D0E61E088EC65
:102B700094E00E941E0E60E083E10E942D0E62E050
:102B800088EC94E00E941E0E63E080E00E942D0E0F
:102B900063E088EC94E00E941E0E63E083E10E94F3
:102BA0002D0E64E088EC94E00E941E0E60ED77E04C
:102BB00080E090E00E94E903D8E010E4C0E060E02B
:102BC0008C2F0E94FC02CF5FCA30C9F76AE070E028
:102BD00080E090E00E94E903D093D40460E088ECA8
:102BE00094E00E9451080E945F0E0E941B048823FB
:102BF00051F0809180048B3030F08D3038F1855168
:102C0000823008F458C060E070E080EC9FE73AC082
:102C100061E08C850E9488038A858B7F60E009F0E3
:102C200061E08C850E94FC028D858F3F39F061E068
:102C30000E94880361E08D850E94FC028E858F3F93
:102C400009F41ECE60E00E9488031ACE60917B04D6
:102C500070E090E080E00E94F0182DEC3CEC4CEC31
:102C60005DE30E94F3196B017C0160917A0470E0CE
:102C700090E080E00E94F0189B01AC01C701B60112
:102C80000E94D61760934F037093500380935103B3
:102C9000909352030E941B04882341F0809180048A
:102CA0008C3009F41DC1C8F48B3081F160E070E014
:102CB00080EC9FE753C060917A0470917B04762783
:102CC0006727762790E080E00E94EE182DEC3CEC20
:102CD0004CEC5DE30E94F319D5CF8551823030F77B
:102CE000C0917C046C2F70E0762F662766277F7773
:102CF00080917D04682B90E080E00E94EE182DEC1E
:102D00003CEC4CEC5DE30E94F31906C160917C043D
:102D100070E090E080E00E94EE186B017C01C091B1
:102D20007D04C7FF0AC0AC019B0160E070E080E851
:102D30009FEB0E94D5176B017C01CF706C2F70E068
:102D400090E080E00E94F0182DEC3CEC4CEC5DE350
:102D50000E94F319A70196010E94D61760935303AE
:102D60007093540380935503909356030E940A0A6C
:102D700060934703709348038093490390934A03F9
:102D80000E940A0A8DEF0E94A00D0E94C00A0E94B4
:102D9000C00A80917B00886080937B0010937C0048
:102DA00080917A00806480937A0080917A0086FD19
:102DB000FCCF6091780070917900072E000C880B91
:102DC000990B0E94F01820E030E040E85AE30E949E
:102DD000F31920E030E040EA50E40E94F3196B015F
:102DE0007C01AC019B0160E070E080EA90E40E940D
:102DF000D517A70196010E9447182DEC3CEC4CEC2E
:102E00005DE30E94471860934B0370934C038093DB
:102E10004D0390934E0361E080E00E942D0E8BEDF8
:102E200092E00E944B0F6091530370915403809184
:102E300055039091560342E00E94500F8FED0E947F
:102E4000240E81EE92E00E944B0F60E08DE00E9424
:102E50002D0E60914F03709150038091510390911A
:102E6000520342E00E94500F8CEE92E00E944B0F02
:102E700062E080E00E942D0E86EE92E00E944B0FF1
:102E800061E086E00E942D0E60914B0370914C032F
:102E900080914D0390914E0342E00E94500F8BEEC3
:102EA00092E00E944B0F63E080E00E942D0E8EEEB8
:102EB00092E00E944B0F609147037091480380910C
:102EC000490390914A0342E00E94500F8FED0E9407
:102ED000240E8AEF92E00E944B0F0E94CB026ECE2E
:102EE000C0917C046C2F70E090E080E00E94EE18AE
:102EF0006B017C0160917D046F7070E090E080E078
:102F00000E94F0182DEC3CEC4CEC5DE30E94F319B0
:102F1000A70196010E94D617C7FF20CF90581ECF59
:102F2000CF93DF93C0918F04D0919004209749F004
:102F30008A819B81009711F00E94FF1CCE010E94A4
:102F4000FF1C80918D0490918E04009711F00E94D7
:102F5000FF1C8091910490919204009739F0DC015C
:102F6000ED91FC910280F381E02D199580919304FD
:102F700090919404009739F0DC01ED91FC9102806E
:102F8000F381E02D19958091950490919604009716
:102F900049F0DC01ED91FC910280F381E02DDF919D
:102FA000CF911994DF91CF9108955058BB27AA274C
:102FB0000E94ED170C94B4190E94A61938F00E94D3
:102FC000AD1920F039F49F3F19F426F40C949319AD
:102FD0000EF4E095E7FB0C948D19E92F0E94C519BA
:102FE00058F3BA17620773078407950720F079F43E
:102FF000A6F50C94E7190EF4E0950B2EBA2FA02D30
:103000000B01B90190010C01CA01A0011124FF2795
:10301000591B99F0593F50F4503E68F11A16F04090
:10302000A22F232F342F4427585FF3CF469537958F
:103030002795A795F0405395C9F77EF41F16BA0B54
:10304000620B730B840BBAF09150A1F0FF0FBB1F02
:10305000661F771F881FC2F70EC0BA0F621F731F4B
:10306000841F48F4879577956795B795F7959E3FA8
:1030700008F0B0CF9395880F08F09927EE0F979539
:10308000879508950E94691908F481E008950E94C7
:103090005B180C94B4190E94AD1958F00E94A6193F
:1030A00040F029F45F3F29F00C948D1951110C94D4
:1030B000E8190C9493190E94C51968F39923B1F388
:1030C000552391F3951B550BBB27AA27621773074E
:1030D000840738F09F5F5F4F220F331F441FAA1FE2
:1030E000A9F335D00E2E3AF0E0E832D0915050409E
:1030F000E695001CCAF72BD0FE2F29D0660F771F4C
:10310000881FBB1F261737074807AB07B0E809F031
:10311000BB0B802DBF01FF2793585F4F3AF09E3FB6
:10312000510578F00C948D190C94E8195F3FE4F385
:10313000983ED4F3869577956795B795F7959F5FF9
:10314000C9F7880F911D9695879597F90895E1E045
:10315000660F771F881FBB1F621773078407BA07A4
:1031600020F0621B730B840BBA0BEE1F88F7E095FF
:1031700008950E94CD1988F09F5798F0B92F99278C
:10318000B751B0F0E1F0660F771F881F991F1AF052
:10319000BA95C9F714C0B13091F00E94E719B1E0B7
:1031A00008950C94E719672F782F8827B85F39F0B6
:1031B000B93FCCF3869577956795B395D9F73EF4EB
:1031C00090958095709561957F4F8F4F9F4F089593
:1031D00097FB16F40E9496190C942C19E89409C0D8
:1031E00097FB3EF490958095709561957F4F8F4F3A
:1031F0009F4F9923A9F0F92F96E9BB279395F69550
:10320000879577956795B795F111F8CFFAF4BB0FCD
:1032100011F460FF1BC06F5F7F4F8F4F9F4F16C031
:10322000882311F096E911C0772321F09EE8872FBB
:10323000762F05C0662371F096E8862F70E060E077
:103240002AF09A95660F771F881FDAF7880F9695F0
:10325000879597F90895E894F92F96EBFF2381F06D
:10326000121613061406440B9395F69587957795D9
:10327000679557954040FF23B9F71BC099270895DC
:10328000882351F49850D2F7872B762F652F542F2F
:10329000432F322F20E0B1F3121613061406440B0D
:1032A00088233AF09A95440F551F661F771F881F91
:1032B000CAF755234AF4440F551F11F460FF04C0A8
:1032C0006F5F7F4F8F4F9F4F880F9695879597F928
:1032D0000895990F0008550FAA0BE0E8FEEF1616A7
:1032E0001706E807F907C0F012161306E407F507FA
:1032F00098F0621B730B840B950B39F40A2661F06E
:10330000232B242B252B21F408950A2609F4A14010
:10331000A6958FEF811D811D089597F99F6780E81D
:1033200070E060E008959FEF80EC0895909580959F
:103330007095609550954095309521953F4F4F4F32
:103340005F4F6F4F7F4F8F4F9F4F089500240A9418
:103350001616170618060906089500240A94121670
:103360001306140605060895092E0394000C11F4A3
:10337000882352F0BB0F40F4BF2B11F460FF04C050
:103380006F5F7F4F8F4F9F4F089557FD9058440FA9
:10339000551F59F05F3F71F04795880F97FB991FB4
:1033A00061F09F3F79F08795089512161306140671
:1033B000551FF2CF4695F1DF08C0161617061806FE
:1033C000991FF1CF86957105610508940895E894D9
:1033D000BB2766277727CB0197F908950E946919C3
:1033E00008F48FEF08950E94061A0C94B4190E94F5
:1033F000A61938F00E94AD1920F0952311F00C9415
:103400008D190C94931911240C94E8190E94C51974
:1034100070F3959FC1F3950F50E0551F629FF00127
:10342000729FBB27F00DB11D639FAA27F00DB11D40
:10343000AA1F649F6627B00DA11D661F829F2227C9
:10344000B00DA11D621F739FB00DA11D621F839F50
:10345000A00D611D221F749F3327A00D611D231F26
:10346000849F600D211D822F762F6A2F11249F5774
:1034700050409AF0F1F088234AF0EE0FFF1FBB1F77
:10348000661F771F881F91505040A9F79E3F510536
:1034900080F00C948D190C94E8195F3FE4F3983E8A
:1034A000D4F3869577956795B795F795E7959F5FE0
:1034B000C1F7FE2B880F911D9695879597F9089572
:1034C0000E946919880B990B0895DB018F939F93D4
:1034D0000E94BE1ABF91AF91A29F800D911DA39F24
:1034E000900DB29F900D11240895A1E21A2EAA1BEF
:1034F000BB1BFD010DC0AA1FBB1FEE1FFF1FA217A4
:10350000B307E407F50720F0A21BB30BE40BF50BA0
:10351000661F771F881F991F1A9469F76095709529
:10352000809590959B01AC01BD01CF010895052EBA
:1035300097FB1EF400940E94AE1A57FD07D00E941C
:10354000751A07FC03D04EF40C94AE1A50954095B2
:10355000309521953F4F4F4F5F4F0895909580953F
:10356000709561957F4F8F4F9F4F0895EE0FFF1F0E
:10357000881F8BBF0790F691E02D19940E94541C70
:10358000A59F900DB49F900DA49F800D911D1124B7
:103590000895B7FF0C94BE1A0E94BE1A821B930BAB
:1035A0000895DF93CF931F930F939A9DF02D219F42
:1035B000F00D8B9DF00D8A9DE02DF10D039FF00D18
:1035C000029FE00DF11D4E9DE00DF11D5E9DF00D81
:1035D0004F9DF00D7F936F93BF92AF925F934F9388
:1035E000D5010E94541C8B01AC01D7010E94541CD0
:1035F000EB01E80FF91FD6010E94201B2F913F918C
:10360000D6010E94541CC60FD71FE81FF91FAF91A7
:10361000BF910E94201B2F913F910E94541CC60F06
:10362000D71FE81FF91FD6010E94541CE60FF71F91
:103630009801BE01CF010F911F91CF91DF910895A5
:103640000E94541C460F571FC81FD91F08F43196FB
:103650000895689401C0E894F92FF12B12F00C94AE
:103660005D1BA0E0B0E0E7E3FBE10C94CF1B092E6B
:10367000059422F40E94B91B112392F4F0E80F265E
:10368000FFEFE094F09400951095B094C094D0941E
:10369000A194BF0ACF0ADF0AEF0AFF0A0F0B1F0B24
:1036A0000E94681B07FC0E94B91BCDB7DEB7ECE097
:1036B0000C94EB1B689401C0E8948F929F92CF9377
:1036C000DF930E94681BDF91CF919F908F900895A8
:1036D00088249924F401E401B0E49F93AA279A1561
:1036E0008B049C04ED05FE05CF05D007A10798F4D7
:1036F000AD2FDC2FCF2FFE2FE92D982C892E982F60
:10370000872F762F652F542F432F322F2227B85023
:1037100031F7BF9127C01B2EBF91BB27220F331F4C
:10372000441F551F661F771F881F991F881C991CEF
:10373000EE1FFF1FCC1FDD1FAA1FBB1F8A149B0497
:10374000EC05FD05CE05DF05A007B10748F08A1896
:103750009B08EC09FD09CE09DF09A00BB10B216024
:103760001A94E1F62EF49401AF01BE01CD01000CD4
:1037700008956095709580959095309540955095F9
:1037800021953F4F4F4F5F4F6F4F7F4F8F4F9F4F51
:1037900008952F923F924F925F926F927F928F92F5
:1037A0009F92AF92BF92CF92DF92EF92FF920F93D0
:1037B0001F93CF93DF93CDB7DEB7CA1BDB0B0FB6DA
:1037C000F894DEBF0FBECDBF19942A883988488887
:1037D0005F846E847D848C849B84AA84B984C8842D
:1037E000DF80EE80FD800C811B81AA81B981CE0F24
:1037F000D11D0FB6F894DEBF0FBECDBFED01089509
:10380000002E083090F0982F872F762F652F542F99
:10381000432F322F22270850F4CF220F331F441F8B
:10382000551F661F771F881F991F0A95B2F7002D35
:10383000089597FD1094002E083098F00850232F1B
:10384000342F452F562F672F782F892F912DF4CFA6
:1038500015949795879577956795579547953795DB
:1038600027950A95AAF71124002D08952A0D3B1DCE
:103870004C1D5D1D6E1D7F1D801F911F08952A190F
:103880003B094C095D096E097F09800B910B089576
:103890000024A7FD00942A17300540055005600557
:1038A0007005800590050895A29FB001B39FC001E7
:1038B000A39F700D811D1124911DB29F700D811D5C
:1038C0001124911D08950F931F93CF93DF9382309E
:1038D000910510F482E090E0E091D704F091D804D3
:1038E00030E020E0B0E0A0E0309799F421153105F8
:1038F00009F44AC0281B390B24303105D8F58A81D8
:103900009B816115710589F1FB0193838283FE011F
:1039100011C0408151810281138148175907E0F09D
:103920004817590799F4109761F012960C93129763
:1039300013961C933296CF01DF91CF911F910F9177
:1039400008950093D7041093D804F4CF21153105BE
:1039500051F04217530738F0A901DB019A01BD016C
:10396000DF01F801C1CFEF01F9CF9093D804809324
:10397000D704CDCFFE01E20FF31F81939193225024
:10398000310939832883D7CF2091D5043091D604CB
:10399000232B41F420912A0230912B023093D6043C
:1039A0002093D50420912802309129022115310558
:1039B00041F42DB73EB740912C0250912D02241BAB
:1039C000350BE091D504F091D604E217F307A0F48B
:1039D0002E1B3F0B2817390778F0AC014E5F5F4F65
:1039E0002417350748F04E0F5F1F5093D6044093BD
:1039F000D504819391939FCFF0E0E0E09CCFCF93EB
:103A0000DF930097E9F0FC01329713821282A091B4
:103A1000D704B091D804ED0130E020E01097A1F474
:103A200020813181820F931F2091D5043091D604DB
:103A30002817390709F061C0F093D604E093D50444
:103A4000DF91CF910895EA01CE17DF07E8F54A81AB
:103A50005B819E0141155105B1F7E901FB83EA83C2
:103A600049915991C40FD51FEC17FD0761F480816E
:103A700091810296840F951FE90199838883828141
:103A800093819B838A83F0E0E0E012968D919C9174
:103A900013970097B9F52D913C911197CD0102969E
:103AA000820F931F2091D5043091D604281739072F
:103AB00039F6309751F51092D8041092D704B0938C
:103AC000D604A093D504BCCFD383C2834081518157
:103AD000840F951FC817D90761F44E5F5F4F888127
:103AE0009981480F591F518340838A819B81938319
:103AF00082832115310509F0B0CFF093D804E0930B
:103B0000D7049ECFFD01DC01C0CF13821282D7CF34
:103B100011E0CFE4D1E000E006C0802FFE010E945A
:103B2000B61A2196011DC035D10780E00807A9F714
:043B3000F894FFCF37
:103B34000404041C00000000040404070000000046
:103B44000000001C0404040400000007040404042E
:103B540004040404040404040000D90480000000E4
:103B6400400014005400000000005E02C801F5018A
:103B7400AB02260204021802000000002208F50726
:103B84006608CB07EE07DB07CC07000000001E0E1B
:103B9400C801660865086E616E00696E66006F761E
:103BA4006600202020436F6E746167726F77202057
:103BB4002000436F6E7461696E6572204661726D98
:103BC400002D2D2D2D2D2D2D2D2D2D2D2D2D2D2D4E
:103BD4002D2D2D00436F756C64206E6F7420666903
:103BE4006E6420612076616C696420424D453238F0
:103BF400302073656E736F722C20636865636B206D
:103C0400776972696E6721000D0A0054656D703A18
:103C14000043207C2000434F3A20002025005375A8
:0C3C240068752050616E656C3D00430027
:00000001FF
